:100000000C94CE000C94A32A0C947C2A0C94F60039
:100010000C94F6000C94F6000C94CA2A0C94F6008A
:100020000C94F6000C94F6000C94F6000C94F60078
:100030000C94F6000C94F6000C94F6000C94F60068
:100040000C94322A0C94F6000C94002A0C94DA29B1
:100050000C94F6000C94F6000C94F6000C94F60048
:100060000C94F6000C94F60078787800202000209C
:10007000002D2D2D00663A2000623A20002C200031
:10008000292C002D002D00202800463A2000292C84
:10009000002D002D00202800433A2000206E6F64C0
:1000A000656E7369747900782000206E6F697365DE
:1000B0003D007820002B20000102030405060708FC
:1000C00001020304050607080102030405060708E8
:1000D00001020304050607080102030405060708D8
:1000E00001020304050607080102030405060708C8
:1000F00001020304050607080000000800020100D1
:100100000003040700000000000000005632302EFB
:10011000342E323700010101010101010102020206
:1001200002020202020303030303030303040404A1
:100130000404040404050505050505050506060671
:100140000606060606070707070707070708080841
:1001500008080808080A0A0020780070200000003B
:100160000000250028002B000000000024002700CC
:100170002A00040404040404040402020202020229
:10018000030303030303010204081020408001025B
:1001900004081020010204081020E12A11241FBEC7
:1001A000CFEFD8E0DEBFCDBF25E0ACEDB1E001C0C0
:1001B0001D92A93BB207E1F711E0A0E0B1E0E4E84D
:1001C000FDE602C005900D92AC3DB107D9F710E0F5
:1001D000CEECD0E004C02197FE010E941934CD3C42
:1001E000D107C9F70E94302B0C94C0360C94000044
:1001F00083E480937C0080917A00806480937A000D
:1002000080917A0086FDFCCF8091780090917900F2
:10021000089590E0FC01EA57FE4F24918E589E4FBE
:10022000FC018491882399F090E0880F991FFC01CC
:10023000E859FE4FA591B491FC01E25AFE4F859119
:1002400094918FB7F894EC91E22BEC938FBF0895C3
:1002500081E08093F5010895AF92BF92CF92DF9233
:10026000EF92FF920F931F93CF93DF936C017B016B
:100270008B01040F151FEB015E01AE18BF08C017FC
:10028000D10759F06991D601ED91FC910190F0816F
:10029000E02DC6010995892B79F7C501DF91CF9132
:1002A0001F910F91FF90EF90DF90CF90BF90AF9094
:1002B0000895FC01538D448D252F30E0842F90E06C
:1002C000821B930B541710F0CF9608950197089551
:1002D000FC01918D828D981761F0A28DAE0FBF2F1A
:1002E000B11D5D968C91928D9F5F9F73928F90E070
:1002F00008958FEF9FEF0895FC01918D828D9817DF
:1003000031F0828DE80FF11D858D90E008958FEF1B
:100310009FEF0895FC01918D228D892F90E0805CE4
:100320009F4F821B91098F73992708958AEF94E05C
:100330000E948A0121E0892B09F420E0822F089590
:1003400080E090E0892B29F00E94960181110C94A5
:1003500000000895FC01A48DA80FB92FB11DA35A68
:10036000BF4F2C91848D90E001968F739927848FD5
:10037000A689B7892C93A089B1898C9183708064F8
:100380008C93938D848D981306C00288F389E02D99
:1003900080818F7D80830895EF92FF920F931F934A
:1003A000CF93DF93EC0181E0888F9B8D8C8D981328
:1003B0001AC0E889F989808185FF15C09FB7F89434
:1003C000EE89FF896083E889F98980818370806480
:1003D00080839FBF81E090E0DF91CF911F910F91CB
:1003E000FF90EF900895F62E0B8D10E00F5F1F4FDA
:1003F0000F731127E02E8C8D8E110CC00FB607FCE9
:10040000FACFE889F989808185FFF5CFCE010E9476
:10041000AA01F1CFEB8DEC0FFD2FF11DE35AFF4F39
:10042000F0829FB7F8940B8FEA89FB898081806204
:10043000CFCF0F931F93CF93DF938C01D0E0C0E019
:10044000F801EC0FFD1F6491662341F08AEF94E000
:100450000E94CC01892B11F02196F2CFCE01DF91C1
:10046000CF911F910F910895CF93DF93EC01888D69
:100470008823B9F0AA89BB89E889F9898C9185FD1F
:1004800003C0808186FD0DC00FB607FCF7CF8C91AD
:1004900085FFF2CF808185FFEDCFCE010E94AA01BA
:1004A000E9CFDF91CF91089590E0FC01E850FF4F34
:1004B0002491FC01EA57FE4F3491FC01EE58FE4FA7
:1004C000E491EE23C9F0222339F0233001F1A8F49E
:1004D000213019F1223029F1F0E0EE0FFF1FE25A2E
:1004E000FE4FA591B4918FB7F894EC91611126C09D
:1004F00030953E233C938FBF08952730A9F02830D4
:10050000C9F0243049F7809180008F7D03C080912D
:1005100080008F7780938000DFCF84B58F7784BD94
:10052000DBCF84B58F7DFBCF8091B0008F77809338
:10053000B000D2CF8091B0008F7DF9CF3E2BDACFC3
:100540002FB7F8946091000270910102809102022D
:10055000909103022FBF08950E94A00284E9809326
:10056000BC008091BC0084FDFCCF80E00895CF9357
:10057000C82F0E94A00284ECC11101C084E88093BE
:10058000BC008091BC0087FFFCCF8091B900887FC0
:10059000883351F48091B900887F1092BC0094E4B4
:1005A0009093BC00CF9108958091B900887FFACFD5
:1005B000CF938093BB000E94A00284E88093BC008C
:1005C0008091BC0087FFFCCF8091B900887F883183
:1005D000E9F08091B900887F8034C1F0C091B90002
:1005E000C87F8091B900887F803269F08091B9001E
:1005F000887F883441F01092BC0084E48093BC0072
:100600008C2FCF9108950E94AC02FACFC0E0F8CFB2
:100610000E94A00284EA8093BC008091BC0087FF06
:10062000FCCF8091B900887F8830B9F08091B90003
:10063000887F803191F08091B900887F883349F4B8
:100640008091B900887F1092BC0094E49093BC0024
:1006500008958091B900887F089580E00895CF9330
:100660008093BB000E94A00284E88093BC0080912C
:10067000BC0087FFFCCF8091B900887FC0E0883242
:1006800051F0C091B900C87F8091B900887F803354
:1006900029F40E94AC028C2FCF9108951092BC00D7
:1006A00084E48093BC00F7CF2F923F924F925F92E9
:1006B0006F927F928F929F92AF92BF92CF92DF9272
:1006C000EF92FF920F931F93CF93DF93CDB7DEB7D7
:1006D000C058D1090FB6F894DEBF0FBECDBF109140
:1006E00087048FE780939804109297040E94080370
:1006F000809397048111E8C0110F812F0E94D802C6
:10070000809397048111E0C080E80E942F038093BA
:1007100097048111D9C00E94080380939704811126
:10072000D3C081E0810F0E94D802182F80939704D4
:100730008111CAC0CE0101961C0100E07C018091AC
:100740009804801317C080E00E94B702809397043A
:10075000813009F4B9C08835B9F48091BB00F70144
:1007600081937F010F5F003851F70E94AC028093A4
:1007700097040AC081E00E94B702809397048130F9
:1007800009F4A2C0803549F381119EC000E0D12C4C
:10079000C12CF10191911F01892F10FF92C093FD8F
:1007A000886FD82AB6010D2C000C880B990B0E947B
:1007B000013120E030E040E85EE30E9460312B012F
:1007C0003C012DEC3CEC4CEC5DE30E94FA3087FDE3
:1007D0005AC020E030E04CE752E4C301B2010E946D
:1007E0006A3318160CF457C0E12EE694F4E0EF9E3D
:1007F00070011124C70189579C4F7C0101115FC012
:10080000FC012081318142815381C301B2010E94E8
:1008100055324B015C0120E030E0A9010E946A33AF
:1008200018160CF03FC001E02FE632E143E85AE32E
:10083000C501B4010E946A3318160CF000E0F701FC
:1008400040825182628273821F5F103809F0A1CF0B
:10085000802FC058DF4F0FB6F894DEBF0FBECDBF5C
:10086000DF91CF911F910F91FF90EF90DF90CF908C
:10087000BF90AF909F908F907F906F905F904F90C0
:100880003F902F9008959DEC492E9CEC592E652C9D
:100890009DE3792EA9CF412C512C8CE7682E82E460
:1008A000782EA2CF2FE632E143E85AEBC501B4011E
:1008B0000E94FA30082F001F0027001FC0CF01E060
:1008C000BECFC92ED12CC0CF00E0C2CF1F93CF9393
:1008D000DF93D82FC62F10918704109297040E949F
:1008E00008038093970481111AC0812F880F0E94FA
:1008F000D80280939704811112C08D2F0E942F037C
:100900008093970481110BC08C2F0E942F0380933A
:100910009704811104C00E94AC0280939704DF9178
:10092000CF911F91089508954115510529F4EAE7E3
:10093000F0E080818F7780836A307105B9F0CB0158
:10094000880F991F880F991F807267706860682BE5
:1009500088E10FB6F894A895809360000FBE60936D
:100960006000E0E6F0E0808180648083232BD9F48E
:1009700083B7817F846083BFF89483B7816083BF2E
:1009800085B7806685BF8F7D85BF7894889583B74E
:100990008E7F83BF7894452B29F4EAE7F0E08081CD
:1009A00080688083089583B7817F846083BFF894D3
:1009B00083B7816083BF7894889583B78E7F83BF28
:1009C0007894E9CF21E030E050E040E0BC0189EFCD
:1009D00094E00C949404CF93CFB7F8948091FA01EB
:1009E000811124C0ECE7F1E08491E0E9F1E0949119
:1009F000E82FF0E0EE0FFF1FE859FE4FA591B491EC
:100A0000EC91E92321F461E08AE00E9454028AE03B
:100A10000E9409018CB580618CBD8CB580648CBD51
:100A20008DE00E9409018BE00E9409018091FA018A
:100A30008F5F8093FA01CFBFCF9108958FB7F8945D
:100A40008091F6018FBF0895CF93DF93C8E9D5E079
:100A500061E08A8D0E9454028D8D8CBD8E8D8DBD7E
:100A6000DF91CF910895CF93DF93EC0161E08A810C
:100A70000E94540289858CBD8A858DBDDF91CF91FE
:100A80000895CF93C62FDC01ED91FC910480F58190
:100A9000E02D0995882361F08091B904C81711F001
:100AA000CF3F29F481E09091F901911101C080E0DC
:100AB000CF9108953F924F925F926F927F928F9263
:100AC0009F92AF92BF92CF92DF92EF92FF920F93DD
:100AD0001F93CF93DF93EC01962E5A01822E302E76
:100AE00010E0CE2CD12CF12CE12CE881F981019081
:100AF000F081E02D01E0282DA501692DCE01099599
:100B00000E94A0022B013C010E94A00264197509F9
:100B1000860997096C157D058E059F05C8F4692D1A
:100B2000CE010E944105882379F3188BDF91CF9184
:100B30001F910F91FF90EF90DF90CF90BF90AF90FB
:100B40009F908F907F906F905F904F903F9008950F
:100B50008F858F3110F48F5F8F871F5F311628F6D6
:100B600080E0E4CF3F924F925F926F927F928F929C
:100B70009F92AF92BF92CF92DF92EF92FF920F932C
:100B80001F93CF93DF93EC01162F5A01822E902EE4
:100B9000312CCE2CD12CF12CE12CE881F981019063
:100BA000F081E02D01E0282DA501612FCE010995EE
:100BB0000E94A0022B013C010E94A0026419750949
:100BC000860997096C157D058E059F05C0F4612F78
:100BD000CE010E944105882379F3DF91CF911F91C7
:100BE0000F91FF90EF90DF90CF90BF90AF909F90CC
:100BF0008F907F906F905F904F903F9008953394C7
:100C0000931458F680E0E9CF08958EBD00000DB42E
:100C100007FEFDCF8EB508951F93CF93DF936072CB
:100C2000609304022091F901222311F12091040222
:100C30002223F1F01091F8041123D1F0EC0180E0AF
:100C40000E94050690E09195819591099A8B898B78
:100C500011501093F8042D853E852115310541F082
:100C6000821793074CF48F858F3110F48F5F8F8735
:100C7000DF91CF911F91089528173907CCF78F8501
:100C80008823B1F398899111F3CF8150F0CF0F935E
:100C90001F93CF93DF93EC01062F142FE881F98186
:100CA0000688F789E02D0995802F80680E94050647
:100CB000812F0E940506E881F981008CF18DE02DDD
:100CC000CE01DF91CF911F910F9109941F93CF9384
:100CD000DF93EC01162F45E561114DE56AE5CE0184
:100CE0000E94470640E711114CE76CE5CE01DF9109
:100CF000CF911F910C9447061F93CF93DF93EC0184
:100D0000162FE881F9810688F789E02D0995812F52
:100D10000E94050680E00E940506182FE881F981EF
:100D2000008CF18DE02DCE010995812FDF91CF91BF
:100D30001F9108950F931F93CF93DF9367E08EE980
:100D400095E00E947C06C82F68E08EE995E00E943D
:100D50007C06D82F69E08EE995E00E947C064C2F36
:100D600050E070E060E0BA0155274427480F511D5C
:100D7000611D711D8D2F90E0982F88278A019B019E
:100D8000080F191F211D311DC901B8010E94FF3034
:100D900020E034E244E752E40E9460310E943B3399
:100DA000DF91CF911F910F9108958F929F92AF92F3
:100DB000BF92CF92DF92EF92FF920F931F93CF9348
:100DC000DF93EC01F62ED42E952E822EE881F98148
:100DD0000288F389E02D61E0099567E2CE010E9467
:100DE0007C0687FFFACF10E0E1101C2D180D1E3392
:100DF00008F01DE3E881F9810688F789E02DCE012E
:100E0000099580E80E94050683E0810F0E9405068F
:100E10008F2D0E9405068D810E940506EE20E9F0C7
:100E200080E8C11080EA0E940506CC2049F0C50187
:100E3000B7FE03C09195819591090E940506115056
:100E4000CD2CED2CF92C8E2D8C19811798F4F701EF
:100E500081917F010E940506F6CF80E0002329F0F2
:100E60008D859E85892B21F480E40E940506E8CFBC
:100E700080E6FBCFE881F981008CF18DE02DCE0179
:100E80000995E881F9810288F389E02D64E0CE01BB
:100E9000099568E2CE010E947C0683FFFACFE881C3
:100EA000F9810288F389E02D61E0CE01DF91CF91D5
:100EB0001F910F91FF90EF90DF90CF90BF90AF9078
:100EC0009F908F900994AF92BF92CF92EF920F9321
:100ED000B12CA12CC12C0E94D5060F91EF90CF9080
:100EE000BF90AF9008958F929F92AF92BF92CF9292
:100EF000EF92FF920F931F93CF93DF93EC014B017F
:100F0000F42E1F858FE18F876DE3CE010E947C0652
:100F1000482F44606DE3CE010E9447068091040291
:100F2000A090F701B090F801CC24C394811101C0C6
:100F3000C12CEE24E39400E02F2DA4016091B904AC
:100F4000CE010E94D5061F87DF91CF911F910F918F
:100F5000FF90EF90CF90BF90AF909F908F900895AB
:100F6000CF93DF93EC0168874AE161114FE063E1C1
:100F7000CE010E9447068885882369F061E1CE0191
:100F80000E947C068F71482F406661E1CE01DF919F
:100F9000CF910C9447064F814068F7CFCF93DF93F2
:100FA000EC011092F8041092B9041092F40110921E
:100FB000F9011092F8011092F70168E20E947C0694
:100FC00082FF0AC06DE3CE010E947C06482F446078
:100FD0006DE3CE010E94470640E465E2CE010E9427
:100FE0004706E881F9810288F389E02D63E0CE01AC
:100FF000DF91CF910994109204020C94CE07CF9206
:10100000DF92EF920F931F93CF93DF93EC016B016D
:10101000142F6DE30E947C06482F44606DE3CE01DF
:101020000E944706E881F9810684F785E02DEE24C9
:10103000E39400E0212FA6016091B904CE01099547
:10104000DF91CF911F910F91EF90DF90CF90089596
:10105000CF92DF92EF92FF920F931F93CF93DF9384
:10106000EC01162F6A01F22E6DE30E947C06482FD8
:1010700044606DE3CE010E944706E881F981068451
:10108000F785E02DE12C2F2DA601612FCE010995CA
:10109000DF91CF911F910F91FF90EF90DF90CF9054
:1010A0000895CF93DF93EC01603208F06FE16F8316
:1010B0008885882311F066956F8361E1CE010E94D7
:1010C0007C06807E4F81482B61E1CE01DF91CF917C
:1010D0000C9447061F93CF93DF9320919705261713
:1010E00061F0162FEC01623009F445C050F466231C
:1010F00009F453C0613009F449C0DF91CF911F91C9
:101100000895633021F16430C1F761E00E947C06EC
:10111000837E482F4C6061E0CE010E94470688859F
:10112000882341F0E881F9810488F589E02D61E0A8
:10113000CE01099580919705811106C067E2CE0125
:101140000E947C0687FFF6CF10939705D6CF61E00B
:101150000E947C06837E482F406161E0CE010E94A0
:1011600047068885882331F3E881F9810488F58969
:10117000E02D60E0DDCF61E00E947C06837E482F99
:10118000486061E0CE010E944706D4CF61E00E9432
:101190007C06837E482F4460F4CF61E00E947C0689
:1011A000482F437EEECF1F93CF93DF932091970577
:1011B0002617A9F0162FEC010E946A08143079F462
:1011C0008D859E85892B59F0E881F9810284F3850C
:1011D000E02D6F85CE01DF91CF911F910994DF91B2
:1011E000CF911F910895CF92DF92EF92FF92CF930C
:1011F0006B017C01C0919705C43029F463E08EE94E
:1012000095E00E94D308C701B6010E94FF3020E09C
:1012100034E244E752E40E94C2320E943B336B0145
:101220007C01A7016627772767E08EE995E00E9499
:10123000470677276F2D5E2D4D2D68E08EE995E0EE
:101240000E9447064C2D69E08EE995E00E94470612
:10125000C33029F462E08EE995E00E94D3086C2F38
:101260008EE995E0CF91FF90EF90DF90CF900C94B6
:10127000D308CF92DF92EF92FF920F931F93CF93F9
:10128000DF93EC01F62ED42EC52E122FE881F981C2
:101290000288F389E02D61E0099567E2CE010E94A2
:1012A0007C0687FFFACF1E3308F01DE3E11027C04C
:1012B000002339F100E4E881F9810688F789E02DFF
:1012C000CE01099580E80E94050683E0810F0E9407
:1012D00005068F2D0E9405068D810E940506802F30
:1012E0000E9405060D2DED2CFC2C8E2D801B8117E8
:1012F00050F4F70181917F010E940506F6CF00E8C6
:10130000DACF00E0D8CFE881F981008CF18DE02DB3
:10131000CE010995E881F9810288F389E02D64E026
:10132000CE01099568E2CE010E947C0683FFFACFC8
:10133000E881F9810288F389E02D61E0CE01DF9137
:10134000CF911F910F91FF90EF90DF90CF90099474
:101350008CBD9DBD0895CF93DF938CB5C8E9D5E0D2
:101360008D8F8DB58E8F8F8D98A10E94A80960E01A
:101370008A8DDF91CF910C945402CF93DF93C82FC5
:10138000662331F060E086E00E94BD090E942405DA
:10139000CB3A69F00E94AB0985E00E94050680E027
:1013A0000E940506D82F0E942405D0FDF3CF0E948D
:1013B000AB098C2FDF91CF910C9405060F931F93EF
:1013C000CF93DF93D62F172F082FC42F61E082E031
:1013D0000E94BD09802F0E940506812F0E940506EC
:1013E0008D2F0E9405068C2F0E940506DF91CF915C
:1013F0001F910F910C9424051F93CF93DF93EB0162
:10140000182F61E082E50E94BD09812F0E94050628
:101410008D2F0E9405068C2F0E940506DF91CF912B
:101420001F910C942405CF93DF938CB58093B50561
:101430008DB58093B6058091B2050E9409010E9486
:10144000EB0480E58093B7051092B8050E9424054F
:101450000E94AB098BEA0E9405060E942405809138
:10146000B3059091B405892B69F461E081E00E9495
:10147000BD0980E00E9405060E94240581E0DF91FD
:10148000CF9108950E94AB098FE90E94050680E084
:101490000E940506C82FD0E0DC2FCC2780E00E94F8
:1014A0000506C82B0E9424058091B3059091B405D0
:1014B0008C179D07D1F280E0E2CF882339F00E949B
:1014C000130A4FE066E371E0882319F046E066E412
:1014D00071E08EE995E00C947307CF93DF93EC01F4
:1014E0008CB589878DB58A878B859C850E94A809D4
:1014F0008CB5837F8CBD8CB58F7D8CBD8CB58C7F7E
:101500008CBD8DB58E7F8DBD60E08A81DF91CF91DE
:101510000C945402EF92FF920F931F93CF93DF939B
:10152000EC0161E08EE995E00E94D3082097C1F0BC
:101530008EE995E00E946D0A8EEB0E9405068E01F1
:101540007E0180E1E80EF11CF80181918F010E947B
:1015500005060E151F05C1F78EE995E00E943305BB
:101560006DE38EE995E00E947C068E7F41E0CD2BF5
:1015700009F440E0482B6DE38EE995E0DF91CF91CF
:101580001F910F91FF90EF900C944706CF92DF923E
:10159000EF92FF9224E0629FF0011124E957FC4F83
:1015A000DC0152962D913D914D915C915597608152
:1015B0007181828193810E9455326B017C0120E010
:1015C00030E0A9010E946A33181624F0F7FAF0946B
:1015D000F7F8F094C701B601FF90EF90DF90CF903D
:1015E0000895CF92DF92EF92FF92CF93DF93EC01B9
:1015F0008C81682F6F7082958F70262F280F33276C
:10160000331F6B8162956F70620F732F711D072EF0
:10161000000C880B990B0E94013120E030E040E87B
:101620005EE30E94603120E030E040E450E40E943C
:1016300056326B017C01698170E090E080E00E948D
:10164000013120E030E048EC52E40E94C2329B01BC
:10165000AC01C701B6010E945632DF91CF91FF90D5
:10166000EF90DF90CF900895CF93DF93EB01E82FB9
:10167000F0E0E854FF4FE491883008F44CC098EF54
:10168000980F9883E23078F097EF980F998392E063
:10169000E83050F092E0883360F598E0980F9A8334
:1016A00092E0A3E014C091E0DE01A90FB11D29EF83
:1016B000280F2C939F5F8833D0F4DE01A90FB11D52
:1016C00028E0280F2C93A1E0A90FE23030F1AC0FF5
:1016D000BD2FB11D27E0280F2C939E5FE83048F402
:1016E000DE01A90FB11D29E0280F2C939F5FE23086
:1016F00048F0DE01A90FB11D2FEF280F2C939F5F3B
:10170000E83028F4C90FD11D8F5F88839F5F892F30
:10171000DF91CF91089590E0D0CF9A2FE1CFCF9273
:10172000DF92EF92FF9294E0899FD0011124A95794
:10173000BC4F84E0689FF0011124E957FC4F2081E1
:101740003181428153816D917D918D919C910E9457
:1017500055326B017C0120E030E0A9010E946A3320
:10176000181624F0F7FAF094F7F8F094C701B601D0
:10177000FF90EF90DF90CF9008954F925F926F921D
:101780007F928F929F92BF92CF92DF92EF92FF92C1
:101790000F931F93CF93DF93CDB7DEB728970FB684
:1017A000F894DEBF0FBECDBF082F2A013B014901CF
:1017B000CE0101966C01BC01802F0E94340BB82E23
:1017C000760110E08E2D8C198B15A0F4F701819114
:1017D0007F01F401E80FF11D90819B3098F3602F99
:1017E0000E948F0BA30192010E94FA3087FFEACF7B
:1017F0001F5FE8CF812F28960FB6F894DEBF0FBE8B
:10180000CDBFDF91CF911F910F91FF90EF90DF90AF
:10181000CF90BF909F908F907F906F905F904F90F0
:101820000895CF92DF92EF92FF9294E0899FF001AA
:101830001124E957FC4FC080D180E280F38020E082
:1018400030E040E050E4C701B6010E94FA3087FD65
:1018500011C020E030E04CE552E4C701B6010E941F
:101860006A33181664F4C12CD12C8CE5E82E82E47E
:10187000F82E05C0C12CD12CE12C90E4F92EC70123
:10188000B601FF90EF90DF90CF900895CF92DF9256
:10189000EF92FF92CF93C82F0E94110C6B017C0135
:1018A000EC2FF0E0EE0FFF1FEE57FD4F60817181CE
:1018B00090E080E00E94FF3020E030E04AE754E40E
:1018C0000E94C2329B01AC01C701B6010E94553291
:1018D0006B017C0120E030E0A9010E946A331816F8
:1018E00024F0F7FAF094F7F8F094C701B601CF911D
:1018F000FF90EF90DF90CF9008958F929F92AF92DC
:10190000BF92CF92DF92EF92FF9260910501611139
:1019100002C08032A8F58090060290900702A09045
:101920000802B09009020E94460C6B017C0120E085
:1019300030E040E05FE30E94FA3060E087FD20C0C5
:10194000C701B6010E943B336B3020F5A50194011D
:10195000C701B6010E94C2326B017C0122E538EB5F
:101960004EE75FE30E946A331816A4F020E030E0EF
:1019700048EC52E4C701B6010E9460310E943B333B
:10198000862FFF90EF90DF90CF90BF90AF909F9009
:101990008F90089564E6F4CF8F929F92AF92BF929A
:1019A000CF92DF92EF92FF920E94110C4B015C01EB
:1019B00020910603309107034091080350910903D9
:1019C0000E9455326B017C0120E030E0A9010E94A9
:1019D0006A33181624F0F7FAF094F7F8F09420918F
:1019E0000203309103034091040350910503C501A4
:1019F000B4010E9455324B015C0120E030E0A901A6
:101A00000E946A33181624F0B7FAB094B7F8B0946D
:101A1000A5019401C701B6010E94FA3087FD02C0FA
:101A200075016401C701B601FF90EF90DF90CF9080
:101A3000BF90AF909F908F900895CF92DF92EF92DA
:101A4000FF920F931F93CF93DF93FC01F0808F2DB4
:101A50000E94CC0C8B01D82FC92F8F2D0E94460CD1
:101A60006B017C0198014D2F5C2F0E94FA3087FD9D
:101A700003C08601DE2DCF2DB8018D2F9C2FDF9165
:101A8000CF911F910F91FF90EF90DF90CF9008952D
:101A90007F928F929F92AF92BF92CF92DF92EF92FE
:101AA000FF920F931F93CF93DF9380E090E0A0E02D
:101AB000B0E48093DC019093DD01A093DE01B0934C
:101AC000DF018090060290900702A0900802B0907B
:101AD0000902F12C8F2D0E94CC0C8B01D82FC92F1D
:101AE0007090DC01C090DD01D090DE01E090DF015C
:101AF0009B01482F592F672D7C2D8D2D9E2D0E94E7
:101B00006A3318160CF44CC020E030E040E251E497
:101B1000B8018D2F9C2F0E946A33181624F400E020
:101B200010E0D0E2C1E420E030E040E85FE3C5012E
:101B3000B4010E946A331816CCF48F2D0E947D0CDC
:101B4000682F70E090E080E00E94013120E030E0FA
:101B500048EC52E40E94C2329B01AC01B8018D2FC7
:101B60009C2F0E9460318B01D82FC92F98014D2FD7
:101B70005C2F672D7C2D8D2D9E2D0E94FA3087FDC8
:101B800004C0072D1C2DDD2DCE2DC801AD2FBC2F7F
:101B90008093DC019093DD01A093DE01B093DF011F
:101BA000F39480E4F81296CFDF91CF911F910F91BB
:101BB000FF90EF90DF90CF90BF90AF909F908F906D
:101BC0007F9008958F929F92AF92BF92CF92DF92B3
:101BD000EF92FF928090DC019090DD01A090DE01F9
:101BE000B090DF010E94CC0C6B017C0120E030E062
:101BF00040E05FE30E94FA3087FD2AC0C701B601CA
:101C00000E943B336B3030F5A5019401C701B6014A
:101C10000E94C2326B017C0122E538EB4EE75FE3A4
:101C20000E946A331816B4F020E030E048EC52E429
:101C3000C701B6010E9460310E943B33862FFF909E
:101C4000EF90DF90CF90BF90AF909F908F900895CE
:101C500080E0F5CF84E6F3CF4F925F926F927F9250
:101C6000BF92CF92DF92EF92FF920F931F93CF9389
:101C7000DF9380E090E0A0E0B0E4809306029093D0
:101C80000702A0930802B0930902C0E08C2F0E94C3
:101C9000460C2B013C01B0900602C0900702D09088
:101CA0000802E0900902AC019B016B2D7C2D8D2D6B
:101CB0009E2D0E946A3318160CF442C020E030E0DA
:101CC00040E251E4C301B2010E946A33181634F4B1
:101CD000412C512C80E2682E81E4782E8C2F0E94BA
:101CE000E20D682F70E090E080E00E94013120E07A
:101CF00030E048EC52E40E94C232A30192010E94FB
:101D00006031F62E072F182FD92F262F372F482F67
:101D1000592F6B2D7C2D8D2D9E2D0E94FA3087FD25
:101D200003C0FB2C8601DE2D8F2D902FA12FBD2F00
:101D30008093060290930702A0930802B0930902D1
:101D4000CF5FC03409F0A2CFDF91CF911F910F91E7
:101D5000FF90EF90DF90CF90BF907F906F905F905B
:101D60004F900895E82FF0E0EB5EFE4F8491E62F50
:101D7000F0E0EB5EFE4FE4918E1B082E000C990BF9
:101D800097FF03C0919581959109089598EF980F59
:101D9000903368F4E82FF0E0E854FF4F84918130ED
:101DA00031F0E49181E0E83019F080E0089581E0BD
:101DB0000895FC0101900020E9F73197AF01481B1D
:101DC000590BBC018AEF94E00C942C018DE491E056
:101DD0000C94D90ECF93DF930E941902EC010E945C
:101DE000E60E8C0F9D1FDF91CF9108958F929F92E9
:101DF000AF92BF920F931F93CF93DF93CDB7DEB710
:101E0000A1970FB6F894DEBF0FBECDBF19A2423026
:101E100008F44AE08E010F5D1F4F842E912CB12CE7
:101E2000A12CA50194010E94F733E62FB901CA0144
:101E3000EA30F4F4E05DD801EE938D01232B242BDE
:101E4000252B79F790E080E0109719F0CD010E94E2
:101E5000D90EA1960FB6F894DEBF0FBECDBFDF91AD
:101E6000CF911F910F91BF90AF909F908F90089549
:101E7000E95CE1CF682F70E090E080E04AE00C94EC
:101E8000F60ECF93DF930E943A0FEC010E94E60E0C
:101E90008C0F9D1FDF91CF9108952F923F924F920B
:101EA0005F926F927F928F929F92AF92BF92CF92EA
:101EB000DF92EF92FF920F931F93CF93DF93CDB7F3
:101EC000DEB7A0970FB6F894DEBF0FBECDBF00E21D
:101ED000813009F400E0AE014F5F5F4F5A0110E01E
:101EE000902E910ECE0101963C01D12CC12CC11631
:101EF00008F09AC0892D0E94110C1B012C0176015B
:101F0000F30181913F010E94110C9B01AC01FFEF95
:101F1000CF1ADF0AC201B1010E946A3318163CF7DA
:101F2000212F822F022E000C990BE816F90674F46B
:101F3000FE01E80FF91F308141E050E04C0F5D1FBA
:101F4000840F951FFC0130832150EBCFE1E0F0E0DE
:101F5000EC0FFD1FEE0DFF1D90821F5FFFEFAF1A0C
:101F6000BF0A103209F0BCCF209086036E0147E013
:101F7000C40ED11CEE24E394F12CEC0EFD1E50E2B5
:101F8000E50EF11C00E0812C912C5401F6013190FA
:101F90006F01832D0E94110C2B013C01AC019B01B0
:101FA000C501B4010E9456324B015C0111E0100FD3
:101FB000F4E0F21588F4832D0E94460C0E943B3316
:101FC00061110AC0A3019201C501B4010E945632F9
:101FD0004B015C0112E0100FCE14DF0439F5812FA4
:101FE0000E94410F111124C088E690E00E94EA0E81
:101FF00060E070E0CB01A0960FB6F894DEBF0FBE94
:10200000CDBFDF91CF911F910F91FF90EF90DF90A7
:10201000CF90BF90AF909F908F907F906F905F9088
:102020004F903F902F900895F50196CF012FAECF9E
:10203000612F70E090E080E00E9401319B01AC01D3
:10204000C501B4010E94C232D6CF4F925F926F9207
:102050007F928F929F92AF92BF92CF92DF92EF9238
:10206000FF920F931F93CF936B017C01742EAC01F1
:102070009B010E94B533882399F080E591E0CF91D0
:102080001F910F91FF90EF90DF90CF90BF90AF9096
:102090009F908F907F906F905F904F900C94D90E8F
:1020A00046015701E894B7F82FEF3FEF4FE75FE79E
:1020B000C501B4010E94B53381110DC02FEF3FEF70
:1020C0004FE75FE7C501B4010E94FA3018161CF40F
:1020D00084E591E0D4CF2FEF3FEF4FE75FE4C701F6
:1020E000B6010E946A3318161CF488E591E0C7CF48
:1020F0002FEF3FEF4FE75FECC701B6010E94FA30C8
:1021000087FDF3CF20E030E0A901C701B6010E94AE
:10211000FA3010E000E087FF0AC06DE28AEF94E039
:102120000E94CC018C01F7FAF094F7F8F094C0E02B
:1021300060E070E080E09FE37C1641F020E030E05A
:1021400040E251E40E94C232CF5FF6CFA701960170
:102150000E9456322B013C010E943B334B015C0133
:102160004AE00E94F60E7C01E00EF11ECC23C1F184
:10217000C501B4010E94FF309B01AC01C301B20153
:102180000E9455324B015C016EE28AEF94E00E949E
:10219000CC01E80EF91EC15018F120E030E040E219
:1021A00051E4C501B4010E9460312B013C010E9441
:1021B0003B334B01B12CA12C4AE0C501B4010E9474
:1021C000F60EE80EF91EC501B4010E94FF309B0116
:1021D000AC01C301B2010E9455324B015C01DBCF5F
:1021E000C701CF911F910F91FF90EF90DF90CF909B
:1021F000BF90AF909F908F907F906F905F904F9027
:102200000895CF93DF9342E00E942510EC010E94D5
:10221000E60E8C0F9D1FDF91CF9108950F931F93B2
:10222000CF93DF93EC018091F501882309F446C038
:10223000809197051092F501833009F09FC068E204
:10224000CE010E947C0682FF39C0E881F9810288B4
:10225000F389E02D61E0CE010995E881F9810688D6
:10226000F789E02DCE01099580E00E94050680E007
:102270000E940506082F182F833408F012E41093EB
:10228000F40180E00E9405069E81911105C09D81A8
:10229000891711F08F3F11F4033040F51092F401CB
:1022A000E881F981008CF18DE02DCE010995E8815E
:1022B000F9810088F189E02DCE010995809197057B
:1022C000833009F05BC08091F401882309F45DC07C
:1022D000E881F9810288F389E02D61E0CE0109955A
:1022E00081E0DF91CF911F910F91089513501093CA
:1022F000F80480E00E9405068093B90480E00E9403
:102300000506982F90789093F901E881F98104846B
:10231000F585E02D682FCE01099510E0E091F804D5
:102320001E1750F480E00E940506E12FF0E0E6540D
:10233000FB4F80831F5FF2CFF0E0E654FB4F10822B
:10234000E881F981008CF18DE02DCE010995E881BD
:10235000F9810288F389E02D63E0CE01099564E2FA
:10236000CE010E947C0690E091958195910995950A
:1023700087959093F8018093F701A0CFE881F981C8
:102380000088F189E02DCE01099580E0AACF2F9237
:102390003F924F925F926F927F928F929F92AF92F5
:1023A000BF92CF92DF92EF92FF920F931F93CF9342
:1023B000DF93CDB7DEB765970FB6F894DEBF0FBEDB
:1023C000CDBF8EE995E00E940E11882371F18091B6
:1023D000F804843050F19091BA04963431F590911C
:1023E000BB049C3411F59091BC049835F1F49091A4
:1023F000BD049F33D1F42091B9042B8B873071F544
:102400008091BE04853451F58091BF048F3431F53D
:102410008091C004863411F500E026E046E451E0E6
:102420006B898EE995E00E94280865960FB6F894AE
:10243000DEBF0FBECDBFDF91CF911F910F91FF90F7
:10244000EF90DF90CF90BF90AF909F908F907F9054
:102450006F905F904F903F902F90089581E00E9481
:102460005D0A0E949A06605C7D4B804F9F4F0E94E0
:10247000F30860E070E0CB010E94FC0961E082E0BB
:102480000E94BD0980E00E94050680E00E940506CA
:1024900080E00E9405060CE511E0F80181918F01B2
:1024A0000E940506F1E003361F07B9F70E942405D4
:1024B0004AE369E070E080E090E00E94DE090E945B
:1024C000A0022B013C0189E00E9409012AE0C22EF2
:1024D000D12CE12CF12C312C212C8EE995E00E949D
:1024E0000E11882309F489C08091B9042B8928131F
:1024F00084C03091F804398B61E089E00E94540275
:102500004989443008F475C08091BA04863409F0D2
:1025100070C08091BB048C3409F06BC08091BC0406
:10252000883509F066C08091BD048A3309F056C031
:10253000473008F453C0EEEBF4E010E000E084E034
:10254000BB24BA94B80E919120ED290F2A3008F0DF
:1025500061C04AE0409F9001419F300D11248901E4
:1025600000531109090F111D8F5F883049F797E05B
:10257000B92EE1E0EB0DF0E0E654FB4F80818A33A9
:1025800009F04EC00E94A0022B013C01B394B39409
:10259000BA8A0215130509F445C0C101019708174D
:1025A0001907E1F41F930F9384E691E09F938F93B3
:1025B00021E030E02C0F3D1F3F932F930E941F34EA
:1025C000482FBE016F5F7F4F8EE995E00E94730731
:1025D0000F900F900F900F900F900F908091BD046F
:1025E0008F3339F43989343009F050C081E00E94CA
:1025F0005D0A60E089E00E9454020E94A002641912
:10260000750986099709693B7B408105910508F4A6
:1026100064CF06C09A3309F0A7CF843009F0A9CF60
:1026200010E073C018018FEF281A380AEA898E2F3C
:1026300090E09C0126543B4F3D8B2C8B39894A8975
:10264000431708F0AFCFEC89FD894191FD8BEC8BEE
:1026500046015701FFEF8F1A9F0AAF0ABF0AC70151
:10266000B6010E94DE09D501C4019F77AA27BB27C6
:10267000892B8A2B8B2B21F4C501B4010E94FC0904
:102680002A892F5F2A8B75016401D8CF4989473089
:1026900009F0AFCF8091BE04853409F0AACF8091B4
:1026A000BF048F3409F0A5CF8091C004863409F0AF
:1026B000A0CF460157018AE0881A9108A108B10805
:1026C00091E089169CE79906A104B10440F04FE01F
:1026D0006EE671E08EE995E00E947307A1CF80E07D
:1026E0000E945D0A77276B2D5A2D492D67E070E017
:1026F00080E090E00E94DE0946EF4C0D68E070E05B
:1027000080E090E00E94DE0911E00E949A06605489
:1027100072448F4091090E94F308112309F485CE79
:1027200088E198E00FB6F894A895809360000FBEFA
:1027300090936000FFCFCF92DF92EF92FF920F93C2
:102740001F93CF93DF93CDB7DEB7EC970FB6F89416
:10275000DEBF0FBECDBF082FD92E162FF42EC0908E
:10276000980580919D05882359F10E94F8001F92D9
:10277000CF929F938F93DF920F938EE791E09F9379
:102780008F939E012F5F3F4F69013F932F930E94CC
:102790001F340FB6F894DEBF0FBECDBF18169CF0E5
:1027A00080E0EC960FB6F894DEBF0FBECDBFDF9190
:1027B000CF911F910F91FF90EF90DF90CF900895F0
:1027C00080E090E0D4CF92E3E92E012F282FA601DC
:1027D00061E08EE995E00E945A05082FFF2089F0FC
:1027E0008BE591E00E941902C6010E94D90E0111E9
:1027F00004C088E591E00E94190285E591E00E94FD
:10280000EA0E0023B1F01092990510929A051092E9
:102810009B0510929C0580919805893028F491E0E1
:10282000980F90939805BDCF81E08093980589E03B
:10283000B8CF1111F0CFB4CFDF92EF92FF920F9388
:102840001F93CF93DF93CDB7DEB7E6970FB6F8941B
:10285000DEBF0FBECDBF8C01E62ED72EF42EFC01BD
:1028600062897389848995890E943B331F926F9393
:10287000F80184811F928F9385851F928F938185A4
:1028800087701F928F93828582958F701F928F938E
:1028900082858F701F928F93818582958F701F9292
:1028A0008F9384851F928F9386818F9385818F93D9
:1028B000878187701F928F9380811F928F93818170
:1028C0001F928F9381898F9380898F9387858F93B0
:1028D00086858F9383851F928F93DF92EF9286E890
:1028E00091E09F938F938E010F5F1F4F1F930F9364
:1028F0000E941F340FB6F894DEBF0FBECDBF41E07B
:102900006F2DC8010E949B13E6960FB6F894DEBFA8
:102910000FBECDBFDF91CF911F910F91FF90EF9030
:10292000DF9008951F93CF93DF93EC01809186038E
:1029300090910501913031F0882331F0DF91CF91F2
:102940001F9108958230D0F38F818770833010F10A
:10295000898121E0803208F022E0E88191E0E032D4
:1029600008F092E02917B1F0F0E0EB5EFE4F949191
:10297000E82FF0E0EB5EFE4FE4916DEB71E0E917BC
:1029800010F06AEB71E045E0CE01DF91CF911F912D
:102990000C941C14888999898536910578F28E8566
:1029A0009F858536910550F268818A810E94B20E1A
:1029B000182F688189810E94B20E811780F48A8164
:1029C000998593FF0BC092E0803208F491E0298151
:1029D000203280F421E0291709F4B0CF898368817F
:1029E00089810E94B20E833008F4A8CF43E06EECD8
:1029F00071E0CACF22E0EFCFDF92EF92FF920F9308
:102A00001F93CF93DF93C82FD0E02EE1829FF00178
:102A10001124E65FFD4F2381EEE0F3E090E08AE4CD
:102A200030813A3409F13381321710F4232F892F82
:102A30009F5F7E969430A1F78A34B9F48EE18C9F23
:102A4000F0018D9FF00D1124E65FFD4FDF011D9217
:102A50008A95E9F78AE48083DF91CF911F910F91E6
:102A6000FF90EF90DF900895892FD42E7B01082FDF
:102A700010E0AEE18A9FC0011124825F9C4FFC01EF
:102A800020812A3439F00E949214F701E00FF11FDF
:102A90008AE484838EE1809FD001819FB00D112450
:102AA000A25FBC4F8C9FF0018D9FF00D1124E65F5B
:102AB000FD4F01900D928A95E1F7F801E65FFC4F1A
:102AC000D082BCCFEF92FF920F931F93CF93DF93EF
:102AD000CDB7DEB70FA118A52C85EAE0F2E090E0B3
:102AE0008AE430813A3469F03381321710F4232FAD
:102AF000892F9F5F7E969430A1F78A3419F480E085
:102B000024C0892FE82EF12C9EE1899FF001112429
:102B1000E65FFD4F90819A3421F041E0B8010E94B8
:102B2000FC14F801EE0DFF1D8AE480838EE18E9D7A
:102B3000D0018F9DB00D1124A65FBD4FFE013996C7
:102B400001900D928A95E1F781E0DF91CF911F917D
:102B50000F91FF90EF90089570E0FB01EB5EFE4F48
:102B6000249190E0FC01EB5EFE4FE4912E1B685433
:102B70007F4FFB01649188549F4FFC018491681B37
:102B80006602B00111242202600D711D1124072E6E
:102B9000000C880B990B0E9401310E9475332DECBB
:102BA0003CEC4CE45DE30E94563208952F923F9234
:102BB0004F925F926F927F928F929F92AF92BF924D
:102BC000CF92DF92EF92FF920F931F93CF93DF93F9
:102BD000CDB7DEB7CA58D1400FB6F894DEBF0FBEEE
:102BE000CDBF9E012F533F4F4901C55ADE4F18827A
:102BF000CB55D14010E0812F0E947D0C082F812FF2
:102C00000E94E20D801708F4082FD4010D934D01A6
:102C10000B3008F454C05E01B1E0AB0EBB1EF12CCA
:102C2000E12C6501C55ADE4FE881CB55D140EE1647
:102C300008F0A9C1D5013D905D01E1ECF0E0EC0F99
:102C4000FD1FE30DF11D8081801790F0043621F502
:102C5000812F0E94CC0C2B013C01832D0E94CC0CB7
:102C60009B01AC01C301B2010E946A331816A4F49F
:102C7000C55ADE4F8881CB55D140E82F082E000C75
:102C8000FF0BEE16FF0664F4EC0DFD1DDF0111973E
:102C90009C9190838150F1CFBFEFEB1AFB0AC2CF1A
:102CA000EC0CFD1CF7011083C55ADE4F3881CB5563
:102CB000D1403F5FC55ADE4F3883CB55D1401F5FAF
:102CC000103409F098CFAE014F575F4FC75BDE4F0E
:102CD00059834883C954D1407E0151E4E50EF11C6B
:102CE000BE016F5F7E4FCB59DE4F79836883C55637
:102CF000D140CD5ADE4FF982E882C355D140CE0192
:102D00008F579F4FC559DE4F99838883CB56D1404B
:102D100000E01701C55ADE4F9881CB55D140091705
:102D200009F46CC1CB59DE4FA881B981C556D14099
:102D30001D91CB59DE4FB983A883C556D140812F51
:102D40000E94CC0C20E030E040E45FE30E94603160
:102D50002B013C019E012F533F4FBC01A201812F4B
:102D60000E94BD0BCF5ADE4F8883C155D140C15B55
:102D7000DE4FF982E882CF54D140D12CC12C812F73
:102D800090E0E1ECF0E0EC0FFD1FE80FF91FC95AED
:102D9000DE4FF983E883C755D140CF5ADE4F3881E3
:102DA000C155D140232F30E0C35ADE4F39832883E9
:102DB000CD55D140AC014B5E5E4FC15ADE4F5983B9
:102DC0004883CF55D140BC0168547F4FCF59DE4F67
:102DD00079836883C156D140C01610F00C949229B3
:102DE000C15BDE4FA881B981CF54D140ED91C15B69
:102DF000DE4FB983A883CF54D140CB5ADE4FE8834E
:102E0000C555D140C95ADE4FA881B981C755D140B7
:102E10008C9190E0880F991FE1ECF0E0EC0FFD1F22
:102E2000CB5ADE4FB881C555D140EB0FF11D208143
:102E3000281719060CF0DEC0612F8B2F0E948F0B14
:102E4000C359DE4F688379838A839B83CD56D140F3
:102E500020E030E040E85EE3C301B2010E9460314F
:102E60004B015C0120E030E040E45FE30E94FA3077
:102E700087FD06C0812C912C60E4A62E6FE3B62E50
:102E8000A5019401C359DE4F688179818A819B81B4
:102E9000CD56D1400E94FA3087FFACC0E1E8F0E0A7
:102EA000EC0FFD1FEC0DFD1DB0808B2D0E94CC0C96
:102EB00020E030E040E45FE30E946031AB01BC0100
:102EC0009E012F533F4F8B2D0E94BD0B282F30E0CA
:102ED0002F5F3F4FC35ADE4FE881F981CD55D14076
:102EE0002E173F077CF1CF5ADE4FF881C155D140F4
:102EF000F81708F47FC0C15ADE4FE881F981CF5539
:102F0000D14094912B2D30E0F901EB5EFE4FE4911E
:102F10009E130BC0CF59DE4FE881F981C156D140D5
:102F20009491F901E854FF4FE491953018F0F9E0DD
:102F3000F91B9F2FE53018F029E02E1BE22FE9172F
:102F400008F058C0402F842F042E000C990BC8168F
:102F5000D90614F59C0121503109F101E20FF31F4C
:102F60005081F101E80FF91F508361E870E06C0FA8
:102F70007D1F260F371FD9012C91860F971FFC014B
:102F800020834150E0CFF601C55ADE4F2881CB5552
:102F9000D140E20FF11D87CEF101EC0DFD1DCB5AA2
:102FA000DE4F2881C555D1402083E1E8F0E0EC0FE9
:102FB000FD1FEC0DFD1D10830F5FC559DE4F4881CD
:102FC0005981CB56D1404F5F5F4FC559DE4F598372
:102FD0004883CB56D140CD5ADE4F68817981C355A5
:102FE000D1406F5F7F4FCD5ADE4F79836883C355E1
:102FF000D14090CE3FEFC31AD30AEECEFE013196F8
:1030000080E4DF011D928A95E9F79E012F573F4F1B
:10301000CF5ADE4F39832883C155D14041E050E07B
:10302000C359DE4F59834883CD56D140E12CC55951
:10303000DE4F1882CB56D140F12CBE016F5B7E4F24
:10304000C55BDE4F79836883CB54D140CF5ADE4FC6
:103050008881C155D140C75BDE4F7881C954D140CA
:10306000871BC55ADE4F9881CB55D140891708F090
:10307000ACC2CF5ADE4FA881B981C155D1401D9154
:10308000CF5ADE4FB983A883C155D1401A3409F411
:1030900026C4E394E12FF0E0CB59DE4FF983E883B7
:1030A000C556D140E1E0F0E0EC0FFD1FCB59DE4FFB
:1030B00028813981C556D140E20FF31FE082E1E05B
:1030C000F1E0EC0FFD1FEF0DF11D108388248394B8
:1030D0008F0CFD0131973AE43083812F0E94CC0C94
:1030E0001B012C0120E030E040E45FE30E946031EE
:1030F000CB5ADE4F6883C555D140D72EC82EB92E86
:1031000020E030E040E050E40E946A3318160CF0F2
:103110006DC0CB5ADE4F4881C555D140CF59DE4FE7
:103120004883C156D140C959DE4FD882C756D140D5
:10313000CF58DE4FC882C157D140CD58DE4FB8823C
:10314000C357D140CB59DE4FE881F981C556D140F4
:10315000EB5EFE4F9490CB59DE4FE881F981C55666
:10316000D140E854FF4FA4907F2CC95ADE4FA8826B
:10317000C755D140092DF82C61E0CD5ADE4F688348
:10318000C355D140C35ADE4F1882CD55D1407F146C
:1031900008F0FFC0E1E0F1E0EC0FFD1FE70DF11DCD
:1031A00060801615E1F1BE016F5B7E4F862D0E9497
:1031B000340BFE01EF5BFE4F90E02E2FC55BDE4F20
:1031C0007881CB54D140271B281730F52191A1E0FD
:1031D000B0E0AC0FBD1FA20FB11D3C91E312EDCFCB
:1031E0001217E9F09130D9F091E0E7CFCF59DE4FD7
:1031F0001882C156D140C959DE4F1882C756D140F6
:10320000CF58DE4F1882C157D14050E4CD58DE4F21
:103210005883C357D14096CF913009F4B8C0C359F1
:10322000DE4F88819981CD56D140C15BDE4F9983B5
:103230008883CF54D140C55ADE4F9881CB55D140B9
:10324000C15BDE4FA881CF54D140A91708F09FC0C1
:10325000E1E8F0E0EC0FFD1FC15BDE4F2881398112
:10326000CF54D140E20FF31FC15ADE4FF983E883F8
:10327000CF55D14080803AE4831609F479C0662D99
:10328000882D0E94AC152DEC3CEC4CEC5DE30E94CB
:1032900056320E943B33613009F06AC0612F882D9D
:1032A0000E948F0BCF59DE4F2881C156D140C9599A
:1032B000DE4F3881C756D140CF58DE4F4881C157C5
:1032C000D140CD58DE4F5881C357D1400E94FA30CB
:1032D00087FF4EC0882D90E0E1E0F0E0EC0FFD1F8D
:1032E000E80FF91FE082E1E0F1E0EC0FFD1FEF0DC8
:1032F000F11D8082F394CD5ADE4F4881C355D140F1
:103300004F5FCD5ADE4F4883C355D140FC01EB5E81
:10331000FE4FE491E91508F49E2E0E1708F40E2FC7
:10332000FC01E854FF4FE491EA1508F4AE2EC95AA7
:10333000DE4F5881C755D1405E1728F4C95ADE4F79
:10334000E883C755D14016110BC0C35ADE4F6881C0
:10335000CD55D1406F5FC35ADE4F6883CD55D14004
:10336000EAE4C15ADE4FA881B981CF55D140EC9330
:10337000C15BDE4F28813981CF54D1402F5F3F4F51
:10338000C15BDE4F39832883CF54D14054CF73942F
:10339000FECE0919C95ADE4F9880C755D1409A18F8
:1033A00088248394901608F05AC2800E782C35E059
:1033B000381510F455E0752E812F0E94460C0E949E
:1033C0003B33A62EC201B1010E943B336A1508F4BB
:1033D000A62E4A2DCD5ADE4F6881C355D140460FE7
:1033E0005527551FCA019A01220F331F820F931FC1
:1033F000779C90011124821793070CF47EC22AE96E
:1034000039E949E15FE3CB5ADE4F6881C555D140C8
:103410007D2D8C2D9B2D0E94FA3087FD22C22DEC34
:103420003CEC4CEC5FE3CB5ADE4F6881C555D14094
:103430007D2D8C2D9B2D0E946A33181664F47DEC33
:10344000CB5ADE4F7883C555D140ACECDA2EBCECBC
:10345000CB2E7FE3B72EDE011196C95ADE4FB9831A
:10346000A883C755D140FE01EF53FF4F1F01A12C88
:10347000C15BDE4F1882CF54D140882D90E09C0173
:103480002F5F3F4FC15ADE4F39832883CF55D1403C
:10349000C95ADE4FA881B981C755D1408D91C95A0B
:1034A000DE4FB983A883C755D140E81609F1612FD3
:1034B000C15BDE4F8881CF54D1400E948F0B2B011E
:1034C0003C01CB5ADE4F2881C555D1403D2D4C2DB6
:1034D0005B2D0E946A3318165CF02AE939E949E944
:1034E0005EE3C301B2010E94FA3087FFC5C1A39415
:1034F000C15BDE4F3881CF54D1403F5FC15BDE4FAF
:103500003883CF54D1404FEF241A340A303409F0B5
:10351000BFCFCD5ADE4F5881C355D1405A1508F45C
:10352000D0C185EB90E00E941902812F0E94410FCB
:10353000E1ECF0E0EC0FFD1FCB59DE4F68817981A3
:10354000C556D140E60FF71F8081C559DE4F9881DF
:10355000CB56D14075E0979FF0011124DF01A052B6
:10356000BE4F1C9311968C93EE51FE4F9A2D92955F
:10357000990F990F907CCD5ADE4F8881C355D14069
:103580008F73892B8083A694A694C35ADE4F8881BB
:10359000CD55D1408295807FAA2DAF70AA2EA82A42
:1035A000A182929460EF96220F7009290283C55977
:1035B000DE4FB881CB56D140BF5FC559DE4FB883CF
:1035C000CB56D140B43009F08AC1FE01EF57FF4F0E
:1035D00010821182128213829E012F5B3F4FC75BC4
:1035E000DE4F39832883C954D1404AE052E0CB5999
:1035F000DE4F59834883C556D1406EE073E0C3590E
:10360000DE4F79836883CD56D1408AE093E0CF596D
:10361000DE4F99838883C156D140C959DE4F7983E3
:103620006883C756D140CD5ADE4F59834883C3556E
:10363000D140AE014F5B5F4FCF58DE4F5983488377
:10364000C157D14010E0C75BDE4F5881C954D1400B
:10365000C258DE4F5883CE57D140C65BDE4F6881DB
:10366000CA54D140CE57DE4F6883C258D140CF589C
:10367000DE4FA881B981C157D140EAE4ED93CF581C
:10368000DE4FB983A883C157D140143008F041C13F
:10369000CD5ADE4FA881B981C355D1408C918A346F
:1036A00009F4DCC28EE1FD01DE01119601900D925C
:1036B0008A95E1F7DB8CEC8CFD8C0E8D3F88288C95
:1036C000B98DC55ADE4FB883CB55D140EA8DCB5A60
:1036D000DE4FE883C555D140232D322D4B2F5E2F71
:1036E0006D2D7E2D8F2D902F0E946A33181664F455
:1036F0003D2C2E2CC55ADE4FF882CB55D140CB5AEB
:10370000DE4F0883C555D140888582958F70C55896
:10371000DE4F8883CB57D140282F30E0C458DE4F8E
:1037200039832883CC57D1408985682F6F70829563
:103730008F70680F7727771F620F731F072E000C9B
:10374000880B990B0E94013120E030E040E85EE3F5
:103750000E94603120E030E040E450E40E945632A4
:103760006B017C016C8170E090E080E00E9401318F
:1037700020E030E048EC52E40E94C2329B01AC01F0
:10378000C701B6010E945632CD58DE4F6883C35739
:10379000D140CC58DE4F7883C457D140CB58DE4F50
:1037A0008883C557D140CA58DE4F9883C657D14049
:1037B00050EEE52E51E0F52ED12CC12CC15BDE4F31
:1037C0001882CF54D140CF5ADE4F1882C155D14014
:1037D00048ECC95ADE4F4883C755D14052E4C35A1A
:1037E000DE4F5883CD55D1400AE4C15ADE4FC8821E
:1037F000CF55D140C559DE4F7881CB56D140C71641
:1038000008F019C2A5E0AC9DC001AD9D900D11243A
:10381000FC01ED51FE4F208122952F70C558DE4FDF
:10382000B881CB57D1402B1708F08CC08E519E4FDA
:10383000FC0180818F7390E0880F991FC458DE4F80
:1038400028813981CC57D140821793070CF083C06F
:103850003FEFC31AD30A45E0E40EF11CC6CF890C32
:10386000A5CD8AE9CB5ADE4F8883C555D140E9E919
:10387000DE2EF9E1CF2EEDCDF10180818B3008F401
:1038800037CEF4E0F81508F432CE612FC15BDE4F7D
:103890008881CF54D1400E94AC152DEC3CEC4CEC0F
:1038A0005DE30E9456320E943B33C15ADE4F2881AD
:1038B0003981CF55D1406217130609F00CF417CEA9
:1038C00017CE82EB90E00E941902812F0E943A0FDE
:1038D0008AEA90E00E9419028A2D0E94410FC35982
:1038E000DE4FE881F981CD56D1403196C359DE4F84
:1038F000F983E883CD56D140A9CB87EA90E00E94B6
:103900001902812F0E943A0F8CE990E00E94EA0E82
:10391000E6CFC959DE4FE881F981C756D140E85753
:10392000F10980818A3409F499C1CF59DE4FA88109
:10393000B981C156D14014978C91813009F48EC160
:103940008EE1B2CE8D8590E0880F991F2817190659
:1039500011F00CF07DCFD7016C9189810E94AC15DC
:103960002B013C01C7010E94F10A4B015C01CD58BB
:10397000DE4F2881C357D140CC58DE4F3881C45721
:10398000D140CB58DE4F4881C557D140CA58DE4F91
:103990005881C657D1400E946A331816A4F4CD58F6
:1039A000DE4F8880C357D140CC58DE4F9880C45733
:1039B000D140CB58DE4FA880C557D140CA58DE4F02
:1039C000B880C657D14020E030E040EC50E4B4016C
:1039D000C5010E94FA3087FD06C0812C912C90EC25
:1039E000A92E20E4B22E9401A501C301B2010E94C8
:1039F0006A3318160CF42CCFF7016081CE010196C2
:103A00000E94C60A4B015C01C7010E941D0DC958E6
:103A1000DE4F688379838A839B83C757D140232DE8
:103A2000322DC55ADE4F4881CB55D140CB5ADE4F9F
:103A30005881C555D1400E946A3320E030E040E013
:103A400050E418160CF0EEC0632D722DC55ADE4FEF
:103A50008881CB55D140CB5ADE4F9881C555D14096
:103A60000E9456329B01AC01C501B4010E946A3329
:103A700018160CF4EDCECD58DE4F2881C357D14037
:103A8000CC58DE4F3881C457D140CB58DE4F4881E7
:103A9000C557D140CA58DE4F5881C657D140C301DF
:103AA000B2010E94C2322B013C01232D322DC55A96
:103AB000DE4F4881CB55D140CB5ADE4F5881C5559A
:103AC000D140C501B4010E94C2329B01AC01C301C7
:103AD000B2010E9456322B013C01D70111966C9124
:103AE00070E090E080E00E94013127E137EB41ED8A
:103AF00058E30E9460319B01AC01C301B2010E94F6
:103B000055322B013C01B5E0BC9DF001BD9DF00D8F
:103B10001124ED51FE4F608162956F7070E090E06E
:103B200080E00E9401312AE037ED43E25CE30E942D
:103B300060319B01AC01C301B2010E9455322B01DF
:103B40003C012DEC3CEC4CE45DE3C15BDE4F688155
:103B5000CF54D140CF5ADE4F7881C155D140C95A98
:103B6000DE4F8881C755D140C35ADE4F9881CD556D
:103B7000D1400E9455329B01AC01B201C3010E94A9
:103B8000FA301816ACF52DEC3CEC4CE45DE3C15B6F
:103B9000DE4F6881CF54D140CF5ADE4F7881C15576
:103BA000D140C95ADE4F8881C755D140C35ADE4F34
:103BB0009881CD55D1400E9456329B01AC01B20193
:103BC000C3010E94FA3087FF43CE25E0209FF00119
:103BD0001124E052FE4F6081CE0101960E94C60A78
:103BE0009B01AC01C501B4010E94FA3087FF30CEC1
:103BF000C15BDE4F4882CF54D140CF5ADE4F58824E
:103C0000C155D140C95ADE4F6882C755D140C35A09
:103C1000DE4F7882CD55D140C15ADE4F0881CF5555
:103C2000D14016CEC958DE4F688179818A819B8147
:103C3000C757D14015CF0A3409F0FDC1143070F4D4
:103C400041E0C258DE4F6881CE57D140CE57DE4F9B
:103C50007881C258D140812F0E94FC141F5FCD5A39
:103C6000DE4F68817981C355D140625E7F4FCD5A66
:103C7000DE4F79836883C355D140C959DE4F8881AF
:103C80009981C756D1404E96C959DE4F9983888392
:103C9000C756D140CF59DE4FA881B981C156D14016
:103CA0001196CF59DE4FB983A883C156D140183041
:103CB00009F0DDCCFE01EF57FF4FCB5ADE4FF98301
:103CC000E883C555D14020EE31E0C55ADE4F398337
:103CD0002883CB55D1403901C35ADE4FF983E8839D
:103CE000CD55D140512C412CC95ADE4F4882C75581
:103CF000D140C559DE4F4881CB56D140441608F01B
:103D0000BFC1C35ADE4FA881B981CD55D1408D9135
:103D1000C35ADE4FB983A883CD55D140823008F411
:103D200083C1C3010E941D0DCF59DE4F6883798383
:103D30008A839B83C156D140C3010E94F10A6B0163
:103D40007C01FE01EF5BFF4FC15ADE4FF983E88330
:103D5000CF55D140CF5ADE4F19821882C155D1407C
:103D6000FAE4CD5ADE4FF883C355D140312C212CD3
:103D700028ECC15BDE4F2883CF54D14002E410E031
:103D8000C15ADE4FA881B981CF55D1408D91C15A1A
:103D9000DE4FB983A883CF55D140C95ADE4FB881D1
:103DA000C755D140B813D0C0CF5ADE4FE881F98152
:103DB000C155D140143008F050C1E65FFD4F8081FD
:103DC0008A3409F4C1C08EE1DE01119601900D9292
:103DD0008A95E1F7F301608189810E94AC154B015E
:103DE0005C01D3016C91CE0101960E94C60AC959AB
:103DF000DE4F688379838A839B83C756D140A701AE
:103E00009601C501B4010E94C2324B015C01CF5939
:103E1000DE4F288139814A815B81C156D140C95921
:103E2000DE4F688179818A819B81C756D1400E948B
:103E3000C2329B01AC01C501B4010E9456324B0154
:103E40005C016C8170E090E080E00E94013127E12C
:103E500037EB41ED58E30E9460319B01AC01C50195
:103E6000B4010E9455324B015C01688562956F7008
:103E700070E090E080E00E9401312AE037ED43E2FB
:103E80005CE30E9460319B01AC01C501B4010E945A
:103E900055324B015C012DEC3CEC4CE45DE3632DB1
:103EA000722DC15BDE4F8881CF54D140902F0E948C
:103EB00055329B01AC01B401C5010E94FA301816BD
:103EC0000CF0D8C02DEC3CEC4CE45DE3632D722D7E
:103ED000C15BDE4F8881CF54D140902F0E94563273
:103EE0009B01AC01B401C5010E94FA3087FF1CC0E0
:103EF000CD5ADE4FB881C355D1408B2F90E0B430FE
:103F000008F0AEC02EE1289FF001299FF00D11248A
:103F1000EF5EFD4F808187702885277090E028171D
:103F2000190611F00CF0A6C0832C922CC15BDE4F59
:103F3000A880CF54D140B02E382C292CC15BDE4F45
:103F4000A882CF54D1400B2D1F5FCF5ADE4F48813E
:103F50005981C155D140425E5F4FCF5ADE4F5983E0
:103F60004883C155D140183009F00ACF0AE012E069
:103F7000BE016F5B7F4F6B01912C75E0749DC0019A
:103F8000759D900D1124DC01AD51BE4F5D01FC010A
:103F9000EE51FE4F7F01D6018D916D01C95ADE4F62
:103FA000B881C755D140B81328C0CD5ADE4FE8813B
:103FB000C355D140E91509F1F3E0F915D0F0D80166
:103FC0008C918A34B1F0F5018081803458F0D701AA
:103FD0002C912F73F801848590E045E0281719068D
:103FE00009F00CF441E0BE016F5B7F4F892D0E9408
:103FF000FC14F60131972AE420839394025E1F4F4C
:1040000038E09312C8CFC35ADE4FE881F981CD550D
:10401000D140319781E0CD5ADE4F4881C355D14020
:104020004A3409F480E080835FEF451A550A65E061
:10403000660E711C59CEE1E8F0E0EC0FFD1FE00FB9
:10404000F11D80818F5F8083CF58DE4FE881F98139
:10405000C157D1403197008301CEEA56FD4FAFCE14
:1040600004973EE1389FF001399FF00D1124EB5E7B
:10407000FC4F50CFCD5ADE4F1883C355D1405CCF93
:10408000CD5ADE4F19821882C355D140CE018F5BC5
:104090009F4FC55BDE4F99838883CB54D140DE01AF
:1040A0001596C35BDE4FB983A883CD54D140CD5A5A
:1040B000DE4FB881C355D140C959DE4FB883C756CA
:1040C000D140C559DE4FE881CB56D140BE1710F024
:1040D0000C945728CB5ADE4F28813981C555D140E1
:1040E000CB57DE4F39832883C558D140D9018C91F5
:1040F0008111FEC0C55ADE4F88819981CB55D140D0
:104100000E941D0D1B012C01C55ADE4F888199812B
:10411000CB55D1400E94F10ACD58DE4F6883C3577A
:10412000D140CC58DE4F7883C457D140CB58DE4FB6
:104130008883C557D140CA58DE4F9883C657D140AF
:10414000FE01EF5BFF4FCF58DE4FF983E883C15785
:10415000D1408EE0682E83E0782EC15BDE4F19825D
:104160001882CF54D140FAE4CF5ADE4FF883C155BC
:10417000D140C95ADE4F1882C755D140C35ADE4FCD
:104180001882CD55D14028ECC15ADE4F2883CF5537
:10419000D14032E4CF59DE4F3883C156D14065E07B
:1041A000CD5ADE4F48815981C355D140649FC0012B
:1041B000659F900D1124DC01AD51BE4FC957DE4FF4
:1041C000B983A883C758D140FC01EE51FE4FC757B1
:1041D000DE4FF983E883C958D140C15BDE4FF881D7
:1041E000CF54D140CE57DE4FF883C258D140D301CF
:1041F0008C918A34B1F1CF58DE4FE881F981C157F3
:10420000D14094819A3469F54EE1C15BDE4F28813B
:104210003981CF54D140429FF001439FF00D1124CA
:10422000EB5EFC4F408142954F70C957DE4FA8812D
:10423000B981C758D1409C9192959F70941708F00E
:10424000D7C0C757DE4FE881F981C958D1402081D6
:104250002F7330E0220F331F4217130609F00CF4BE
:10426000D2C0C15BDE4F88819981CF54D140019685
:10427000C15BDE4F99838883CF54D1409EE1690EA4
:10428000711CCF58DE4FA881B981C157D14011961A
:10429000CF58DE4FB983A883C157D140C15BDE4FF1
:1042A000E881F981CF54D140349709F096CFCF5AA5
:1042B000DE4FF881C155D140FA3409F415C4E1E468
:1042C000F0E0EC0FFD1FCF5ADE4F2881C155D140E1
:1042D000E20FF11DC959DE4F3881C756D1403483F2
:1042E000E1E0CB5ADE4FA881B981C555D140EC93AE
:1042F000CB5ADE4FA881B981C555D1404C90B1E071
:104300004B12F2C3FE01EF5BFF4F10E000E0F02E16
:104310008191C959DE4F2881C756D1402813DBC58A
:1043200033E0301708F48CC24EE1409FF001419F0A
:10433000F00D1124E65FFD4F8EE1DE011196019034
:104340000D928A95E1F789818A3409F49CC2C55A95
:10435000DE4FA881B981CB55D1407C9011968C90CD
:1043600045E0CD5ADE4FE881F981C355D1404E9FDB
:1043700090014F9F300D1124F901EE51FE4F8081C5
:10438000582F5F73C15BDE4F5883CF54D140829565
:104390008695869583702180622D6F70262E220C63
:1043A000220C282AF901ED51FE4F90809294AFE043
:1043B0009A222C513E4FD9018C91B82FBF70CF5A01
:1043C000DE4FB883C155D140E82EE294BFE0EB2226
:1043D0008A81803210F40C94A1292FE182E0582EBA
:1043E000271510F40C94A829552453940C94AE2945
:1043F000D3011C962C9130E0220F331F9217130625
:1044000011F00CF02ECFC55ADE4FE881F981CB5563
:10441000D14060810E94AC15C958DE4F6883798312
:104420008A839B83C757D1404EE1C15BDE4F288111
:104430003981CF54D140429F8001439F100D1124F8
:10444000F801EB5EFC4F608162956F70862F90E003
:10445000C458DE4F99838883CC57D140D30113963B
:104460006C9170E090E080E00E940131C258DE4F14
:10447000688379838A839B83CE57D140F801EA5EB3
:10448000FC4F8081682F6F7082958F70680F77273F
:10449000771FC458DE4FE881F981CC57D1406E0FA9
:1044A0007F1F072E000C880B990B0E94013120E022
:1044B00030E040E85EE30E94603120E030E040E41C
:1044C00050E40E9456326B017C0120E030E048EC61
:1044D00052E4C258DE4F688179818A819B81CE5730
:1044E000D1400E94C2329B01AC01C701B6010E94BB
:1044F00056327B018C019B01AC01CD58DE4F6881A7
:10450000C357D140CC58DE4F7881C457D140CB58E7
:10451000DE4F8881C557D140CA58DE4F9881C657B3
:10452000D1400E946A331816A4F0CD58DE4FE880BF
:10453000C357D140CC58DE4FF880C457D140CB5838
:10454000DE4F0881C557D140CA58DE4F1881C65783
:10455000D14020E030E040EC50E4B701C8010E94B7
:10456000FA3087FD04C0E12CF12C00EC10E4970137
:10457000A801C958DE4F688179818A819B81C7571C
:10458000D1400E946A3318160CF46BCEC55ADE4F28
:10459000A881B981CB55D140BC91C558DE4FB883B5
:1045A000CB57D1406B2FC3010E94C60A4B015C015F
:1045B000F301D28CC38CF48DCD57DE4FF883C358F2
:1045C000D140D3015D96BC91CC57DE4FB883C4581F
:1045D000D140F301E688F788008D118D9701A8017D
:1045E0006D2D7C2DCD57DE4F8881C358D1409B2F38
:1045F0000E946A33181664F4ED2CFC2CCD57DE4F64
:104600000881C358D140CC57DE4F1881C458D140DF
:104610009701A801C201B1010E946A3320E030E095
:1046200040E050E418160CF0E9C0B701C8010E9440
:1046300056329B01AC01C501B4010E946A331816C1
:104640000CF40FCECD58DE4F2881C357D140CC5843
:10465000DE4F3881C457D140CB58DE4F4881C55713
:10466000D140CA58DE4F5881C657D140C958DE4F95
:10467000688179818A819B81C757D1400E94C2326B
:104680006B017C01A2019101C501B4010E94C232FB
:104690009B01AC01C701B6010E9456326B017C013F
:1046A00027E137EB41ED58E3C258DE4F688179814D
:1046B0008A819B81CE57D1400E9460319B01AC0121
:1046C000C701B6010E9455326B017C01C458DE4F10
:1046D00028813981CC57D140B901330F880B990B10
:1046E0000E9401312AE037ED43E25CE30E94603131
:1046F0009B01AC01C701B6010E9455327B018C01C0
:104700002DEC3CEC4CE45DE3C95ADE4F6881C755A3
:10471000D140C35ADE4F7881CD55D140C15ADE4FCA
:104720008881CF55D140CF59DE4F9881C156D140B5
:104730000E9455329B01AC01B701C8010E94FA30BA
:1047400018160CF05EC02DEC3CEC4CE45DE3C95A4D
:10475000DE4F6881C755D140C35ADE4F7881CD55B1
:10476000D140C15ADE4F8881CF55D140CF59DE4F5D
:104770009881C156D1400E9456329B01AC01B701CD
:10478000C8010E94FA3087FF6CCDCF5ADE4F3881C6
:10479000C155D1404EE1349FC0011124C558DE4FB0
:1047A0006881CB57D140825F9C4F0E94C60A9B0113
:1047B000AC01C501B4010E94FA3087FF52CDC95A3D
:1047C000DE4FE882C755D140C35ADE4FF882CD553F
:1047D000D140C15ADE4F0883CF55D140CF59DE4F6B
:1047E0001883C156D140CE57DE4F6881C258D140A0
:1047F000CF5ADE4F6883C155D14033CDC201B101DC
:1048000016CFC95ADE4FE882C755D140C35ADE4F92
:10481000F882CD55D140C15ADE4F0883CF55D140E3
:10482000CF59DE4F1883C156D140CE57DE4F588145
:10483000C258D140CF5ADE4F5883C155D14011CD17
:10484000C80104975EE1589FF001599FF00D1124B3
:10485000E25FFC4F71CDF3E0FF15A8F040E0BE0130
:104860006F5B7F4F8F2D0E94FC140DC0880F991F26
:104870008217930784F489810E94C60E882359F019
:1048800023E02F1558F7CB5ADE4FE881F981C55543
:10489000D140108229C1672DCE0101960E94C60A1F
:1048A00020E030E040E251E40E9460310E943B335E
:1048B0006B3F08F06AEF8D81681708F4682F6D83ED
:1048C0009981791609F44BC0C72CD12C96012B5E27
:1048D0003E4FF90174918A81482F50E04B5E5E4F44
:1048E000FA016491761709F43CC2692F70E06B5E9F
:1048F0007E4FF901803208F021C2A491FB01B491EE
:10490000AB1708F430C2FB016491F90144916413C0
:1049100064C26980672D862D0E94B20EE62DF0E0FC
:10492000E854FF4F6490F601E854FF4FE4916E1A8B
:10493000E62D0E2E000CFF0BF7FF03C0F195E1955D
:10494000F109E81708F4E82F9A8597709E1710F47C
:104950009E2F97708A85887F892B8A8779828C829F
:1049600024E0729EF0011124E957FC4F808191816F
:10497000A281B3818B8B9C8BAD8BBE8B872D0E94CC
:10498000460C5B016C01AF8AB88EC98EDA8E872D1A
:104990000E94CC0C2B013C014B8E5C8E6D8E7E8E6A
:1049A000992D9295907F88858F70892B88878E2D81
:1049B0008295807FCF5ADE4F3881C155D140832BFD
:1049C0008987C15BDE4F4881CF54D1404D872E8609
:1049D00020E030E048EC52E4C601B5010E946031AD
:1049E0000E943B332F853889220F331FC901860F60
:1049F000971F63E070E00E94CF33788B6F8720E0D1
:104A000030E048EC52E4C301B2010E9460310E94E0
:104A10003B3329893A89220F331FC901860F971F1B
:104A200063E070E00E94CF337A8B698B3B85832FE4
:104A30008F7090E0880F991FCF5ADE4F5881C15573
:104A4000D140850F911D63E070E00E94E333262F73
:104A50002F70307F232B822F82958F7090E0880FEC
:104A6000991F8E0D911D63E070E00E94E333629503
:104A7000607F2F70262B2B872A85822F82958F703F
:104A800090E0880F991F890D911D63E070E00E94EE
:104A9000E3336295607F2F70262B2A878C8590E008
:104AA000880F991F880D911D63E070E00E94CF333D
:104AB0006C878E819F8180366AEE960718F4019686
:104AC0009F838E8373E07F1508F4C3C18EE1809FBE
:104AD000D001819FB00D1124A65FBD4FFE0131961C
:104AE00001900D928A95E1F7CB5ADE4F28813981EA
:104AF000C555D1402F5F3F4FCB5ADE4F39832883B6
:104B0000C555D140CB57DE4FA881B981C558D1409A
:104B10008C91811174C2C55ADE4FE881F981CB5561
:104B2000D1401081812F0E94460C962EB72EA82EC0
:104B3000C15BDE4F9883CF54D140812F0E94CC0CB3
:104B4000CF5ADE4F6883C155D140272E382E892E8B
:104B5000E12FF0E0EB5EFE4FE491E53018F089E0E4
:104B60008E1BE82FE43009F0A0C2809186038330C9
:104B700008F0B8C1103240F480910501823059F03C
:104B800080910502823039F08091050281110DC4B7
:104B9000103208F088C208E0010F003208F422C287
:104BA00080910502811107C080918603811103C0A5
:104BB000003208F424C288E0C35BDE4FA881B981CB
:104BC000CD54D1401D928A95E9F7E1E0F0E0FF83F2
:104BD000EE838885887019830A831B83C55ADE4F4C
:104BE000A881B981CB55D14011965C915C8345E099
:104BF000CD5ADE4FE881F981C355D1404E9F9001D7
:104C00004F9F300D1124F901ED51FE4F6081607FFF
:104C10008160862B8887F901EC51FE4F8081482FF7
:104C20004F70807F942F982B99879A859F70962B31
:104C30009A87842B8B875C87F901EE51FE4F808128
:104C4000982F9F739D87982F929596959695937020
:104C500081818F70880F880F892B8E8720E030E04C
:104C600048EC52E4692D7B2D8A2DC15BDE4F988183
:104C7000CF54D1400E9460310E943B33788B6F87C4
:104C800020E030E048EC52E4CF5ADE4F6881C15555
:104C9000D140722D832D982D0E9460310E943B33AC
:104CA0007A8B698B54E0159FF0011124E957FC4F72
:104CB00080819181A281B3818B8B9C8BAD8BBE8BCC
:104CC000892D9B2DAA2DC15BDE4FB881CF54D140D9
:104CD0008F8B988FA98FBA8FCF5ADE4F8881C1559D
:104CE000D140922DA32DB82D8B8F9C8FAD8FBE8F71
:104CF000C45BDE4F6881CC54D1406F93C55BDE4FFF
:104D00007881CB54D1407F938DB79EB74E970FB625
:104D1000F8949EBF0FBE8DBFADB7BEB711968EE1A2
:104D2000FE01319601900D928A95E1F70E9462157D
:104D30000FB6F894DEBF0FBECDBF61C1A491FB01D9
:104D4000B491BA1708F0DFCDF9012491FA0144912A
:104D5000241778F07A828885887F8160877F8887AA
:104D6000D8CD803288F7F9012491FA014491421795
:104D700088F798859770923008F4CBCD672D0E9404
:104D8000B20E33243394380E88858770682EF2E093
:104D9000F81738F08A81803210F072E0472E5410F4
:104DA00005C08981988593FF0EC06A9488858860C4
:104DB0008887631470F4262D2770622E8885887F7B
:104DC000682A6886A6CD672D0E94B20E823068F7E9
:104DD000EDCF332D3770632EF1CF4B8150E04B5E1A
:104DE0005E4F803240F52491FA014491241740F53A
:104DF000888583FD27C0888591E0980F9770887F0C
:104E0000892B88878885877F88878981803210F001
:104E100062E0462E88858770541006C0863030F4D4
:104E2000F3E0FF1508F075CD833008F083E0988536
:104E3000987F892B94CF2491FA0144914217C0F2B4
:104E40007B82D6CF672D892F0E94B20E823098F6D2
:104E5000D9CFC8010497AEE1A89FF001A99FF00D3A
:104E60001124E25FFC4FDF012EE11D922A95E9F744
:104E70003AE43083E1E4F0E0EC0FFD1FE00FF11FB6
:104E80003083C45BDE4F4881CC54D1404F93C55B27
:104E9000DE4F5881CB54D1405F936DB77EB76E51D2
:104EA00071090FB6F8947EBF0FBE6DBFADB7BEB728
:104EB0001196FE0131968EE101900D928A95E1F7EF
:104EC0000E9462150FB6F894DEBF0FBECDBF8823D7
:104ED00009F4D9CC09CE0F5F1F4F0830110509F036
:104EE00016CAD1CC853008F4E0C045E0CD5ADE4F7B
:104EF00028813981C355D140429FF001439FF00D75
:104F00001124EC51FE4F80818F7009F4CEC058EF10
:104F1000510FC35ADE4F5883CD55D14008E0010FE1
:104F2000CF5ADE4F2881C155D140322D432D582D07
:104F3000692D7B2D8A2DC15BDE4F9881CF54D140E6
:104F40000E946A3318160CF077C0CF5ADE4FC88023
:104F5000C155D140D22CE32CF82C612FC35ADE4F1F
:104F60008881CD55D1400E948F0B2B013C01612FD0
:104F7000802F0E948F0BC95ADE4F688379838A8302
:104F80009B83C755D14020E030E040E05FE3103222
:104F900008F05BC00E945632A30192010E94FA30D1
:104FA00087FF1FC020E030E040EC5FE3B601C7019F
:104FB0000E94FA3087FD06C0C12CD12CE0ECEE2E09
:104FC000FFE3FF2EC95ADE4F288139814A815B8178
:104FD000C755D140B601C7010E946A3318160CF4B8
:104FE000DCCD012F80910501823049F080910502CE
:104FF000823009F0D5CD809186038111D1CDCD5A73
:10500000DE4FE881F981C355D1403196CD5ADE4F4C
:10501000F983E883C355D140C55ADE4F28813981D1
:10502000CB55D1402B5F3F4FC55ADE4F3983288384
:10503000CB55D1400C945720C92CDB2CEA2CC15BFA
:10504000DE4FF880CF54D14088CFC301B2010E9417
:105050005632C95ADE4F288139814A815B81C75552
:10506000D1400E94FA3087FF1EC020E030E040ECC3
:105070005FE3B601C7010E94FA3087FD06C0C12C6C
:10508000D12C60ECE62E7FE3F72EA3019201B6014E
:10509000C7010E946A33C35ADE4F0881CD55D14003
:1050A00018160CF47ACD012F7BCD012F76CD88E92F
:1050B00090E00E94190210E000E05EE1D52ECB598D
:1050C000DE4FA881B981C556D1408C918A3479F1DF
:1050D0000E943A0F85E990E00E941902CB59DE4FF9
:1050E000E881F981C556D14081810E943A0F83E958
:1050F00090E00E941902D09EC001D19E900D112413
:105100009C012F5E3D4F7901D9018C9187700E94DF
:105110003A0F81E990E00E941902F701808182959F
:105120008F700E943A0F8EE890E00E9419020F5F84
:105130001F4FCB59DE4F28813981C556D140225EA1
:105140003F4FCB59DE4F39832883C556D1400430B9
:10515000110509F0B4CF0E94E60E8AE890E00E94A3
:10516000190210E000E04EE1D42EC359DE4FA881B1
:10517000B981CD56D1408C918A3479F10E943A0F91
:1051800087E890E00E941902C359DE4FE881F98157
:10519000CD56D14081810E943A0F85E890E00E946F
:1051A0001902D09EC001D19E900D11249C012B5E4E
:1051B0003C4F7901D9018C9187700E943A0F83E8A6
:1051C00090E00E941902F701808182958F700E9401
:1051D0003A0F80E890E00E9419020F5F1F4FC359F9
:1051E000DE4F28813981CD56D140225E3F4FC359D1
:1051F000DE4F39832883CD56D1400430110509F0A4
:10520000B4CF0E94E60E609106037091070380916F
:1052100008039091090342E00E9425108DE790E079
:105220000E941902609102037091030380910403AC
:10523000909105030E94011189E790E00E941902F4
:105240006091060270910702809108029091090214
:105250000E94011185E790E00E9419026091DC0133
:105260007091DD018091DE019091DF010E940111BA
:1052700027E8C22E23E0D22E38EBE32E30E0F32EC7
:1052800000E0D6016D917D918D919D916D0142E07F
:105290000E942510802F0E947D0C182F802F0E94C5
:1052A000E20D811708F4182F1A3068F581E790E0B5
:1052B0000E941902F7018491883079F50E94E60E68
:1052C0000F5FFFEFEF1AFF0A0034D9F60E94E60ED7
:1052D00081E0C657DE4F0FB6F894DEBF0FBECDBFDC
:1052E000DF91CF911F910F91FF90EF90DF90CF90C2
:1052F000BF90AF909F908F907F906F905F904F90F6
:105300003F902F900895143620F48FE690E00E948D
:105310001902812F0E943A0FCDCF8CE690E00E94B7
:105320001902CECFC559DE4FA881B981CB56D140E5
:105330001C93CD5ADE4FE881F981C355D1400C94BE
:10534000DB17FFE192E0592EF71540F055245394F6
:10535000672D8B810E94B20E833048F0898188507E
:10536000803328F088EF870D803308F074CA4D85AC
:10537000242F30E0C15BDE4FE881CF54D1408E2F27
:1053800090E0E41708F472CA220F331F2817390778
:105390000CF081CA872D0E94C60E882309F47BCAAF
:1053A00033E03F1508F46FCA59CA012F103208F4D0
:1053B00018CE01CC1F920F920FB60F9211242F938B
:1053C0003F934F935F936F937F938F939F93AF938D
:1053D000BF93EF93FF938AEF94E00E94AA01FF919D
:1053E000EF91BF91AF919F918F917F916F915F915D
:1053F0004F913F912F910F900FBE0F901F901895D6
:105400001F920F920FB60F9211242F938F939F9399
:10541000EF93FF93E0910A05F0910B058081E091F5
:105420001005F091110582FD1BC09081809113053C
:105430008F5F8F7320911405821741F0E09113055F
:10544000F0E0E650FB4F958F80931305FF91EF91AD
:105450009F918F912F910F900FBE0F901F901895D5
:105460008081F4CF1F920F920FB60F9211242F93C9
:105470003F938F939F93AF93BF938091000290913E
:105480000102A0910202B09103023091FF0123E0DA
:10549000230F2D3758F50196A11DB11D2093FF0153
:1054A0008093000290930102A0930202B093030242
:1054B0008091FB019091FC01A091FD01B091FE0152
:1054C0000196A11DB11D8093FB019093FC01A09357
:1054D000FD01B093FE01BF91AF919F918F913F91DC
:1054E0002F910F900FBE0F901F90189526E8230F55
:1054F0000296A11DB11DD2CF1F920F920FB60F922F
:1055000011242F933F934F935F936F937F938F93C8
:105510009F93AF93BF93EF93FF93E0910201F091BC
:1055200003010995FF91EF91BF91AF919F918F91E9
:105530007F916F915F914F913F912F910F900FBE8F
:105540000F901F9018951F920F920FB60F92112473
:105550002F933F934F935F936F937F938F939F937B
:10556000AF93BF93EF93FF93E0910001F09101019E
:105570000995FF91EF91BF91AF919F918F917F918D
:105580006F915F914F913F912F910F900FBE0F90B0
:105590001F9018951F920F920FB60F9211248F93A0
:1055A0000FB6F894A89580916000886180936000A0
:1055B000109260000FBE8F910F900FBE0F901F9042
:1055C0001895EAEFF4E01382128288EE93E0A0E0EF
:1055D000B0E084839583A683B7838AE091E09183CA
:1055E000808385EC90E09587848784EC90E09787B2
:1055F000868780EC90E0918B808B81EC90E0938BA0
:10560000828B82EC90E0958B848B86EC90E0978B7C
:10561000868B118E128E138E148EE8E9F5E081E0F0
:1056200080831182128213821482858390E5918B8C
:10563000128A2AE0208722E021878093970514862A
:105640008FE1858716862CE131E037832683978F9B
:1056500010A288E0828F80E39FEE948F838F08955D
:10566000CF93DF93CDB7DEB7EE970FB6F894DEBFDA
:105670000FBECDBF789484B5826084BD84B581604F
:1056800084BD85B5826085BD85B5816085BD80910D
:105690006E00816080936E00109281008091810085
:1056A000826080938100809181008160809381007D
:1056B000809180008160809380008091B10084603F
:1056C0008093B1008091B00081608093B0008091A0
:1056D0007A00846080937A0080917A00826080935F
:1056E0007A0080917A00816080937A0080917A00BC
:1056F000806880937A001092C100E0910A05F091D1
:105700000B0582E08083E0910605F0910705108289
:10571000E0910805F091090580E18083109212055F
:10572000E0910E05F0910F0586E08083E0910C0575
:10573000F0910D05808180618083E0910C05F091EE
:105740000D05808188608083E0910C05F0910D0546
:10575000808180688083E0910C05F0910D05808147
:105760008F7D80838CE091E00E94EA0E219A299A35
:105770001092AC051092AB051092AE051092B005D8
:105780001092AF05109204028FE18093AD058091D5
:10579000A105823009F4AEC0833009F0ADC081E0CC
:1057A0008093A205FE0133968CE2DF011D928A955B
:1057B000E9F781E0898394E09A8322E02B8383E0F8
:1057C0008D832E839F8320E4288795E099878A879D
:1057D00086E08B8783E38C8787E08D8798E09F87BF
:1057E00099E0998B99E19B8B92E49C8B35E23D8B00
:1057F0002E8B26E22F8B888F88E2898F80E18A8F1B
:1058000089E28B8F8CED8C8F8EE28D8F88E88E8F66
:105810008FE28F8F8DE288A380E389A327E32BA3F8
:1058200020E92CA328E32DA39EA39CE39FA39FE83C
:1058300098A79DE399A792E19AA79FE69BA78CA7BB
:105840008FEF8DA784EE8E8780EC888B8BE18AA307
:1058500061E08091A0050E9454028091A0050E9401
:1058600009010E94EB0480E58093A9051092AA0526
:105870000E94A0024B015C014AEA6FE28EE995E0CA
:105880000E9447066FE28EE995E00E947C068A3A04
:1058900059F00E94A002681979098A099B096233AC
:1058A00071058105910540F30E94A0024B015C0146
:1058B00045E56FE28EE995E00E9447066FE28EE9CA
:1058C00095E00E947C068535C9F410E0E12FF0E0F8
:1058D000EE0FFF1F21E030E02C0F3D1FE20FF31F02
:1058E00060816F3FB9F041818EE995E00E944706E3
:1058F0001F5FECCF80E054CF8FEF52CF0E94A00209
:10590000681979098A099B09623371058105910536
:1059100078F2DBCF90E080E00E948A0A6091A605D1
:105920008EE995E00E94B00761E08EE995E00E9463
:10593000D3080E94A0024B015C0167E28EE995E06A
:105940000E947C0687FD0BC00E94A002681979099D
:105950008A099B09623371058105910570F30E94E4
:10596000A002681979098A099B09623371058105CA
:105970009105D0F48091A205823098F4E82FF0E0F0
:10598000EE0FFF1FE050FF4F28E231E0318320830C
:10599000813009F4FEC080916900836080936900C2
:1059A000E89A8DE08093A30561E08EE995E00E947E
:1059B000B0078FEB91E00E948A0A84EC9FEF9093EE
:1059C000AC058093AB050E94130A882331F060E098
:1059D00089EB0E94BD090E9424050E94C711809195
:1059E0009D0510E000E0882319F00E94F8008C016A
:1059F00094E1992EB12CA12C80919D05D12CC12C24
:105A0000882319F00E94F8006C010C191D0917FF7A
:105A100003C0119501951109A00EB11E33E3A31621
:105A2000B10438F4C6018A5F91098F35914008F4BA
:105A3000B7C010929D052998299A88E6809387041B
:105A4000449A459A8091B9008E7F8093B9008091E5
:105A5000B9008D7F8093B9008CE08093B80084E416
:105A60008093BC001092880460E080E00E9466048D
:105A70008FE3809389046FE381E00E946604809144
:105A80008B048E7F80938B0481FBEE24E0F8F12C55
:105A9000B701660F771F83E00E94660480918A0435
:105AA0008E7F80938A0460E082E00E9466048AB15F
:105AB000877E8AB98BB188618BB986E090E00E94BD
:105AC000E20441E06AE080ED91E00E949B1389E0EE
:105AD00090E00E94E20489E090E00E94E2048EE0FF
