:100000000C949D000C945D300C9436300C94C5001B
:100010000C94C5000C94C5000C9484300C94C5005D
:100020000C94C5000C94C5000C94C5000C94C5003C
:100030000C94C5000C94C5000C94C5000C94C5002C
:100040000C94EC2F0C94C5000C94BA2F0C94942FA4
:100050000C94C5000C94C5000C94C5000C94C5000C
:100060000C94C5000C94C5000102030405060708A2
:100070000102030405060708010203040506070838
:100080000102030405060708010203040506070828
:100090000102030405060708010203040506070818
:1000A0000102030405060708010101010101010124
:1000B0000202020202020202030303030303030318
:1000C00004040404040404040505050505050505E8
:1000D00006060606060606060707070707070707B8
:1000E00008080808080808080000000800020100C5
:1000F00000030407000000000000000000000000F2
:10010000250028002B0000000000240027002A0002
:1001100004040404040404040202020202020303AD
:1001200003030303010204081020408001020408B5
:1001300010200102040810209B3011241FBECFEFB5
:10014000D8E0DEBFCDBF25E0A2EFB1E001C01D9237
:10015000A93DB207E1F711E0A0E0B1E0EAE3F6E77C
:1001600002C005900D92A23FB107D9F710E0CDE98A
:10017000D0E004C02197FE010E947438CC39D10729
:10018000C9F70E94E6300C941B3B0C94000090E0F1
:10019000FC01EC5DFE4F2491805F9E4FFC01849139
:1001A000882399F090E0880F991FFC01EA5FFE4FC9
:1001B000A591B491FC01E450FF4F859194918FB7C4
:1001C000F894EC91E22BEC938FBF0895FC01538DD2
:1001D000448D252F30E0842F90E0821B930B541721
:1001E00010F0CF96089501970895FC01918D828DAE
:1001F000981761F0A28DAE0FBF2FB11D5D968C9147
:10020000928D9F5F9F73928F90E008958FEF9FEF85
:100210000895FC01918D828D981731F0828DE80F41
:10022000F11D858D90E008958FEF9FEF0895FC01FB
:10023000918D228D892F90E0805C9F4F821B9109C8
:100240008F7399270895FC01A48DA80FB92FB11DB4
:10025000A35ABF4F2C91848D90E001968F739927FC
:10026000848FA689B7892C93A089B1898C918370DA
:1002700080648C93938D848D981306C00288F389D3
:10028000E02D80818F7D80830895EF92FF920F9300
:100290001F93CF93DF93EC0181E0888F9B8D8C8D32
:1002A00098131AC0E889F989808185FF15C09FB726
:1002B000F894EE89FF896083E889F98980818370E9
:1002C000806480839FBF81E090E0DF91CF911F9198
:1002D0000F91FF90EF900895F62E0B8D10E00F5FB9
:1002E0001F4F0F731127E02E8C8D8E110CC00FB68F
:1002F00007FCFACFE889F989808185FFF5CFCE0127
:100300000E942301F1CFEB8DEC0FFD2FF11DE35A7D
:10031000FF4FF0829FB7F8940B8FEA89FB898081A9
:100320008062CFCFCF93DF93EC01888D8823B9F023
:10033000AA89BB89E889F9898C9185FD03C08081F0
:1003400086FD0DC00FB607FCF7CF8C9185FFF2CF6D
:10035000808185FFEDCFCE010E942301E9CFDF919F
:10036000CF91089580E295E00E94170121E0892B4A
:1003700009F420E0822F089580E090E0892B29F095
:100380000E94B20181110C940000089581E08093D5
:100390004E020895AF92BF92CF92DF92EF92FF92FA
:1003A0000F931F93CF93DF936C017B018B01040F9D
:1003B000151FEB015E01AE18BF08C017D10759F039
:1003C0006991D601ED91FC910190F081E02DC6017B
:1003D0000995892B79F7C501DF91CF911F910F9175
:1003E000FF90EF90DF90CF90BF90AF90089590E096
:1003F000FC01E851FF4F2491FC01EC5DFE4F34916C
:10040000FC01E05FFE4FE491EE23C9F0222339F0B6
:10041000233001F1A8F4213019F1223029F1F0E064
:10042000EE0FFF1FE450FF4FA591B4918FB7F894E2
:10043000EC91611126C030953E233C938FBF089507
:100440002730A9F02830C9F0243049F78091800086
:100450008F7D03C0809180008F7780938000DFCFF5
:1004600084B58F7784BDDBCF84B58F7DFBCF809142
:10047000B0008F778093B000D2CF8091B0008F7D95
:10048000F9CF3E2BDACF2FB7F89460915B027091D1
:100490005C0280915D0290915E022FBF08950E94E0
:1004A000430284E98093BC008091BC0084FDFCCFB2
:1004B00080E00895CF93C82F0E94430284ECC111BD
:1004C00001C084E88093BC008091BC0087FFFCCF12
:1004D0008091B900887F883351F48091B900887F7A
:1004E0001092BC0094E49093BC00CF910895809149
:1004F000B900887FFACFCF938093BB000E9443025C
:1005000084E88093BC008091BC0087FFFCCF809181
:10051000B900887F8831E9F08091B900887F803404
:10052000C1F0C091B900C87F8091B900887F803246
:1005300069F08091B900887F883441F01092BC0046
:1005400084E48093BC008C2FCF9108950E944F02C9
:10055000FACFC0E0F8CF0E94430284EA8093BC0047
:100560008091BC0087FFFCCF8091B900887F8830E4
:10057000B9F08091B900887F803191F08091B90005
:10058000887F883349F48091B900887F1092BC003D
:1005900094E49093BC0008958091B900887F0895F9
:1005A00080E00895CF938093BB000E94430284E8CB
:1005B0008093BC008091BC0087FFFCCF8091B90084
:1005C000887FC0E0883251F0C091B900C87F809127
:1005D000B900887F803329F40E944F028C2FCF917D
:1005E00008951092BC0084E48093BC00F7CF2F9252
:1005F0003F924F925F926F927F928F929F92AF92B3
:10060000BF92CF92DF92EF92FF920F931F93CF93FF
:10061000DF93CDB7DEB7C058D1090FB6F894DEBF6F
:100620000FBECDBF1091EE048FE78093FF041092B0
:10063000FE040E94AB028093FE048111E8C0110FFA
:10064000812F0E947B028093FE048111E0C080E82C
:100650000E94D2028093FE048111D9C00E94AB0295
:100660008093FE048111D3C081E0810F0E947B0240
:10067000182F8093FE048111CAC0CE0101961C017F
:1006800000E07C018091FF04801317C080E00E948D
:100690005A028093FE04813009F4B9C08835B9F458
:1006A0008091BB00F70181937F010F5F003851F704
:1006B0000E944F028093FE040AC081E00E945A0209
:1006C0008093FE04813009F4A2C0803549F3811182
:1006D0009EC000E0D12CC12CF10191911F01892F06
:1006E00010FF92C093FD886FD82AB6010D2C000C24
:1006F000880B990B0E94833520E030E040E85EE3F0
:100700000E94E2352B013C012DEC3CEC4CEC5DE30E
:100710000E947C3587FD5AC020E030E04CE752E46F
:10072000C301B2010E94EC3718160CF457C0E12E39
:10073000E694F4E0EF9E70011124C70182519C4FB2
:100740007C0101115FC0FC01208131814281538114
:10075000C301B2010E94D7364B015C0120E030E0BA
:10076000A9010E94EC3718160CF03FC001E02FE6FB
:1007700032E143E85AE3C501B4010E94EC37181690
:100780000CF000E0F70140825182628273821F5FA9
:10079000103809F0A1CF802FC058DF4F0FB6F89462
:1007A000DEBF0FBECDBFDF91CF911F910F91FF90A4
:1007B000EF90DF90CF90BF90AF909F908F907F9001
:1007C0006F905F904F903F902F9008959DEC492E31
:1007D0009CEC592E652C9DE3792EA9CF412C512CF0
:1007E0008CE7682E82E4782EA2CF2FE632E143E830
:1007F0005AEBC501B4010E947C35082F001F002769
:10080000001FC0CF01E0BECFC92ED12CC0CF00E069
:10081000C2CF1F93CF93DF93D82FC62F1091EE0432
:100820001092FE040E94AB028093FE0481111AC054
:10083000812F880F0E947B028093FE04811112C0D9
:100840008D2F0E94D2028093FE0481110BC08C2F49
:100850000E94D2028093FE04811104C00E944F02C4
:100860008093FE04DF91CF911F9108950895411563
:10087000510529F4EAE7F0E080818F7780836A30C0
:100880007105B9F0CB01880F991F880F991F8072ED
:1008900067706860682B88E10FB6F894A89580931C
:1008A00060000FBE60936000E0E6F0E0808180644D
:1008B0008083232BD9F483B7817F846083BFF8942E
:1008C00083B7816083BF85B7806685BF8F7D85BF15
:1008D0007894889583B78E7F83BF7894452B29F4CD
:1008E000EAE7F0E0808180688083089583B7817FA4
:1008F000846083BFF89483B7816083BF78948895C0
:1009000083B78E7F83BF7894E9CFCF93CFB7F89426
:1009100080915502811124C0EAE1F1E08491EEE278
:10092000F1E09491E82FF0E0EE0FFF1FEA5FFE4F39
:10093000A591B491EC91E92321F461E08AE00E9451
:10094000F7018AE00E94C7008CB580618CBD8CB530
:1009500080648CBD8DE00E94C7008BE00E94C700C0
:10096000809155028F5F80935502CFBFCF9108953C
:100970008FB7F89480914F028FBF0895CF93DF9384
:10098000CEEBD5E061E088810E94F7018B818CBDC0
:100990008C818DBDDF91CF910895CF93DF93EC01D2
:1009A00061E08A810E94F70189858CBD8A858DBDB1
:1009B000DF91CF910895CF93C62FDC01ED91FC918B
:1009C0000480F581E02D0995882361F08091500223
:1009D000C81711F0CF3F29F481E090915402911192
:1009E00001C080E0CF9108953F924F925F926F9245
:1009F0007F928F929F92AF92BF92CF92DF92EF92AF
:100A0000FF920F931F93CF93DF93EC01962E5A0121
:100A1000822E302E10E0CE2CD12CF12CE12CE8814E
:100A2000F9810190F081E02D01E0282DA501692DCB
:100A3000CE0109950E9443022B013C010E94430212
:100A400064197509860997096C157D058E059F0542
:100A5000C8F4692DCE010E94DB04882379F3188B3A
:100A6000DF91CF911F910F91FF90EF90DF90CF908A
:100A7000BF90AF909F908F907F906F905F904F90BE
:100A80003F9008958F858F3110F48F5F8F871F5FA0
:100A9000311628F680E0E4CF3F924F925F926F923A
:100AA0007F928F929F92AF92BF92CF92DF92EF92FE
:100AB000FF920F931F93CF93DF93EC01162F5A01F0
:100AC000822E902E312CCE2CD12CF12CE12CE881D1
:100AD000F9810190F081E02D01E0282DA501612F21
:100AE000CE0109950E9443022B013C010E94430262
:100AF00064197509860997096C157D058E059F0592
:100B0000C0F4612FCE010E94DB04882379F3DF91CA
:100B1000CF911F910F91FF90EF90DF90CF90BF90FA
:100B2000AF909F908F907F906F905F904F903F908D
:100B300008953394931458F680E0E9CF08958EBD5C
:100B400000000DB407FEFDCF8EB508951F93CF931F
:100B5000DF93607260935F0220915402222311F1AF
:100B600020915F022223F1F0109153021123D1F062
:100B7000EC0180E00E949F0590E09195819591099C
:100B80009A8B898B1150109353022D853E85211528
:100B9000310541F0821793074CF48F858F3110F4A3
:100BA0008F5F8F87DF91CF911F91089528173907A5
:100BB000CCF78F858823B1F398899111F3CF8150B9
:100BC000F0CF0F931F93CF93DF93EC01062F142FD9
:100BD000E881F9810688F789E02D0995802F8068E2
:100BE0000E949F05812F0E949F05E881F981008C5A
:100BF000F18DE02DCE01DF91CF911F910F910994DE
:100C00001F93CF93DF93EC01162F45E561114DE55E
:100C10006AE5CE010E94E10540E711114CE76CE561
:100C2000CE01DF91CF911F910C94E1051F93CF93DB
:100C3000DF93EC01162FE881F9810688F789E02D12
:100C40000995812F0E949F0580E00E949F05182F23
:100C5000E881F981008CF18DE02DCE010995812F7D
:100C6000DF91CF911F9108950F931F93CF93DF933F
:100C700067E085EC95E00E941606C82F68E085ECD9
:100C800095E00E941606D82F69E085EC95E00E9459
:100C900016064C2F50E070E060E0BA01552744275B
:100CA000480F511D611D711D8D2F90E0982F8827D1
:100CB0008A019B01080F191F211D311DC901B801AF
:100CC0000E94813520E034E244E752E40E94E2359C
:100CD0000E94BD37DF91CF911F910F9108958F92A0
:100CE0009F92AF92BF92CF92DF92EF92FF920F93BB
:100CF0001F93CF93DF93EC01F62ED42E952E822EE8
:100D0000E881F9810288F389E02D61E0099567E2C5
:100D1000CE010E94160687FFFACF10E0E1101C2DCD
:100D2000180D1E3308F01DE3E881F9810688F78964
:100D3000E02DCE01099580E80E949F0583E0810F98
:100D40000E949F058F2D0E949F058D810E949F0507
:100D5000EE20E9F080E8C11080EA0E949F05CC20D7
:100D600049F0C501B7FE03C09195819591090E9494
:100D70009F051150CD2CED2CF92C8E2D8C1981173F
:100D800098F4F70181917F010E949F05F6CF80E0E2
:100D9000002329F08D859E85892B21F480E40E9413
:100DA0009F05E8CF80E6FBCFE881F981008CF18DCB
:100DB000E02DCE010995E881F9810288F389E02DC3
:100DC00064E0CE01099568E2CE010E94160683FF19
:100DD000FACFE881F9810288F389E02D61E0CE0144
:100DE000DF91CF911F910F91FF90EF90DF90CF9007
:100DF000BF90AF909F908F900994AF92BF92CF9287
:100E0000EF920F93B12CA12CC12C0E946F060F9171
:100E1000EF90CF90BF90AF9008958F929F92AF9236
:100E2000BF92CF92EF920F931F93CF93DF93EC017A
:100E30004B01142F6DE30E941606482F44606DE3AA
:100E4000CE010E94E10580915F02A0905102B09016
:100E50005202CC24C394811101C0C12CEE24E3942E
:100E600000E0212FA40160915002CE010E946F0684
:100E7000DF91CF911F910F91EF90CF90BF90AF90E6
:100E80009F908F900895CF93DF93EC0168874AE19C
:100E900061114FE063E1CE010E94E105888588235E
:100EA00069F061E1CE010E9416068F71482F4066FD
:100EB00061E1CE01DF91CF910C94E1054F81406853
:100EC000F7CFCF93DF93EC011092530210925002B0
:100ED00010924D021092540210925202109251023E
:100EE00068E20E94160682FF0AC06DE3CE010E94EE
:100EF0001606482F44606DE3CE010E94E10540E4F0
:100F000065E2CE010E94E105E881F9810288F3895A
:100F1000E02D63E0CE01DF91CF91099410925F0242
:100F20000C946107CF92DF92EF920F931F93CF93B0
:100F3000DF93EC016B01142F6DE30E941606482F1E
:100F400044606DE3CE010E94E105E881F9810684E9
:100F5000F785E02DEE24E39400E0212FA6016091B7
:100F60005002CE010995DF91CF911F910F91EF9023
:100F7000DF90CF900895CF92DF92EF92FF920F9380
:100F80001F93CF93DF93EC01162F6A01F22E6DE3CE
:100F90000E941606482F44606DE3CE010E94E105D1
:100FA000E881F9810684F785E02DE12C2F2DA6013B
:100FB000612FCE010995DF91CF911F910F91FF9085
:100FC000EF90DF90CF900895CF93DF93EC016032E4
:100FD00008F06FE16F838885882311F066956F8331
:100FE00061E1CE010E941606807E4F81482B61E1AF
:100FF000CE01DF91CF910C94E1051F93CF93DF9346
:101000002091BD05261761F0162FEC01623009F41E
:1010100045C050F4662309F453C0613009F449C057
:10102000DF91CF911F910895633021F16430C1F7B2
:1010300061E00E941606837E482F4C6061E0CE017D
:101040000E94E1058885882341F0E881F9810488C0
:10105000F589E02D61E0CE0109958091BD058111F2
:1010600006C067E2CE010E94160687FFF6CF1093F6
:10107000BD05D6CF61E00E941606837E482F4061F1
:1010800061E0CE010E94E1058885882331F3E88183
:10109000F9810488F589E02D60E0DDCF61E00E94F0
:1010A0001606837E482F486061E0CE010E94E1056C
:1010B000D4CF61E00E941606837E482F4460F4CFAF
:1010C00061E00E941606482F437EEECF1F93CF9318
:1010D000DF932091BD052617A9F0162FEC010E9481
:1010E000FD07143079F48D859E85892B59F0E881B0
:1010F000F9810284F385E02D6F85CE01DF91CF91D8
:101100001F910994DF91CF911F910895CF92DF92A3
:10111000EF92FF92CF936B017C01C091BD05C4306B
:1011200029F463E085EC95E00E946608C701B601EA
:101130000E94813520E034E244E752E40E944437C3
:101140000E94BD376B017C01A7016627772767E006
:1011500085EC95E00E94E10577276F2D5E2D4D2DE2
:1011600068E085EC95E00E94E1054C2D69E085EC96
:1011700095E00E94E105C33029F462E085EC95E03A
:101180000E9466086C2F85EC95E0CF91FF90EF9060
:10119000DF90CF900C946608CF92DF92EF92FF928F
:1011A0000F931F93CF93DF93EC01F62ED42EC52E11
:1011B000122FE881F9810288F389E02D61E0099519
:1011C00067E2CE010E94160687FFFACF1E3308F0B1
:1011D0001DE3E11027C0002339F100E4E881F98123
:1011E0000688F789E02DCE01099580E80E949F05C9
:1011F00083E0810F0E949F058F2D0E949F058D81A6
:101200000E949F05802F0E949F050D2DED2CFC2C28
:101210008E2D801B811750F4F70181917F010E9470
:101220009F05F6CF00E8DACF00E0D8CFE881F9815A
:10123000008CF18DE02DCE010995E881F9810288BD
:10124000F389E02D64E0CE01099568E2CE010E94A9
:10125000160683FFFACFE881F9810288F389E02D31
:1012600061E0CE01DF91CF911F910F91FF90EF9040
:10127000DF90CF9009948CBD9DBD0895CF93DF93EF
:101280008CB5CEEBD5E08B838DB58C838D819E8123
:101290000E943B0960E08881DF91CF910C94F701B7
:1012A000CF93DF93C82F662331F060E086E00E9481
:1012B00050090E94BE04CB3A69F00E943E0985E0C5
:1012C0000E949F0580E00E949F05D82F0E94BE04C7
:1012D000D0FDF3CF0E943E098C2FDF91CF910C946B
:1012E0009F050F931F93CF93DF93D62F172F082FB0
:1012F000C42F61E082E00E945009802F0E949F0568
:10130000812F0E949F058D2F0E949F058C2F0E9488
:101310009F05DF91CF911F910F910C94BE041F93F5
:10132000CF93DF93EB01182F61E082E50E94500913
:10133000812F0E949F058D2F0E949F058C2F0E9458
:101340009F05DF91CF911F910C94BE04CF93DF9343
:101350008CB58093C1058DB58093C2058091BE0583
:101360000E94C7000E94850480E58093C305109207
:10137000C4050E94BE040E943E098BEA0E949F059C
:101380000E94BE048091BF059091C005892B69F42D
:1013900061E081E00E94500980E00E949F050E9468
:1013A000BE0481E0DF91CF9108950E943E098FE94C
:1013B0000E949F0580E00E949F05C82FD0E0DC2F8F
:1013C000CC2780E00E949F05C82B0E94BE0480911C
:1013D000BF059091C0058C179D07D1F280E0E2CF48
:1013E000882339F00E94A6094FE063E571E0882365
:1013F00019F046E063E671E085EC95E00C940D078A
:10140000CF93DF93EC018CB589878DB58A878B8567
:101410009C850E943B098CB5837F8CBD8CB58F7DEC
:101420008CBD8CB58C7F8CBD8DB58E7F8DBD60E005
:101430008A81DF91CF910C94F701CF92DF92EF92E6
:10144000FF920F931F93CF93DF93EC018B0161E029
:101450000E94660801151105B1F0CE010E94000A34
:101460008EEB0E949F057801680180E1C80ED11CB7
:10147000F70181917F010E949F05EC14FD04C1F7E3
:10148000CE010E94CD046DE3CE010E9416068E7F30
:1014900041E0012B09F440E0482B6DE3CE01DF91E0
:1014A000CF911F910F91FF90EF90DF90CF900C9410
:1014B000E105CF92DF92EF92FF920F931F93CF93AC
:1014C000DF938B01EB0130E020E0922F7A0170E096
:1014D00060E0691798F5FB01D701DD907D016F5F32
:1014E0007F4FD801AD0DB11DD880AC91AD158CF7F3
:1014F000722FA72F072E000CBB0BEA17FB076CF40B
:101500006D01C40ED51E7601B1E0EB1AF108D701CA
:101510006C91D6016C937150ECCFE40FF51F908362
:101520002F5F3F4F2196281780F2DF91CF911F91B7
:101530000F91FF90EF90DF90CF900895FA01E20FA6
:10154000F31FEDCFCF93DF93EB01E82FF0E0E859E5
:10155000FF4FE491883008F44CC098EF980F9883BF
:10156000E23078F097EF980F998392E0E83050F0EE
:1015700092E0883360F598E0980F9A8392E0A3E0B8
:1015800014C091E0DE01A90FB11D29EF280F2C93A3
:101590009F5F8833D0F4DE01A90FB11D28E0280F2A
:1015A0002C93A1E0A90FE23030F1AC0FBD2FB11D9B
:1015B00027E0280F2C939E5FE83048F4DE01A90F46
:1015C000B11D29E0280F2C939F5FE23048F0DE0127
:1015D000A90FB11D2FEF280F2C939F5FE83028F43F
:1015E000C90FD11D8F5F88839F5F892FDF91CF91B6
:1015F000089590E0D0CF9A2FE1CFCF92DF92EF9273
:10160000FF9224E0629FF0011124E251FC4FDC01C3
:1016100051962D913D914D915C91549760817181CE
:10162000828193810E94D7366B017C0120E030E0FB
:10163000A9010E94EC37181624F0F7FAF094F7F895
:10164000F094C701B601FF90EF90DF90CF9008951E
:10165000CF92DF92EF92FF92CF93DF93EC018885D8
:10166000682F6770829586958770262F280F3327FD
:10167000331F6F8162956F70620F732F711D072E7C
:10168000000C880B990B0E94833520E030E040E885
:101690005EE30E94E23520E030E040E050E40E944A
:1016A000D8366B017C016B8170E090E080E00E9495
:1016B000833520E030E048EC52E40E9444379B013F
:1016C000AC01C701B6010E94D836DF91CF91FF90DF
:1016D000EF90DF90CF900895CF92DF92EF92FF923C
:1016E000CF93DF93C82FD0E0FE01EE0FFF1FEE0F68
:1016F000FF1FE251FC4FC080D180E280F380C70120
:10170000B6010E94BD3763506A3260F5CC0FDD1F11
:10171000C651DD4F6881798190E080E00E9481357B
:1017200020E030E04AE754E40E9444379B01AC01DA
:10173000C701B6010E94D7366B017C0120E030E082
:10174000A9010E94EC37181624F0F7FAF094F7F884
:10175000F094C701B601DF91CF91FF90EF90DF9039
:10176000CF900895C12CD12C7601F3CF2F923F92C8
:101770004F925F926F927F928F929F92AF92BF92A1
:10178000CF92DF92EF92FF920F931F93CF93DF934D
:10179000CDB7DEB7CA54D1090FB6F894DEBF0FBE7D
:1017A000CDBF813009F055C021961FAE219720E2B0
:1017B00030E023963FAF2EAF23972196AFAC219711
:1017C000812C212C312C50E45FAF10E000E0B4E319
:1017D000FB2E82E4E82EEA2DF0E023966EAD7FAD7D
:1017E0002397E617F7070CF03FC0EE0FFF1FEE0F31
:1017F000FF1FE251FC4FB080C180D28093806B2DDF
:101800007C2D8D2D992D0E94BD3762506C32F8F4DD
:10181000212F302F4F2D5E2D6B2D7C2D8D2D992D51
:101820000E94EC37181624F01B2D0C2DFD2CE92CF2
:10183000282D322D432D5FAD6B2D7C2D8D2D992DB7
:101840000E947C3587FD03C08B2C16019FAEA394AC
:10185000C2CF30E221963FAF219740E450E023967B
:101860005FAF4EAF2397A9CF212F302F4F2D5E2D85
:10187000682D722D832D9FAD0E94D73620E030E079
:1018800040E251E40E9444372B013C01CE010B960B
:101890009EAF8DAF8AE0ADADBEAD1D928A95E9F7E2
:1018A00021969FAC2197892D90E02396EEADFFAD58
:1018B00023978E179F070CF058C0880F991F880F29
:1018C000991FFC01E251FC4FA080B180C280D380FF
:1018D0002DEC3CEC4CEC5DE3612F702F8F2D9E2D99
:1018E0000E94D8369B01AC01C601B5010E947C352F
:1018F00060E018160CF52DEC3CEC4CEC5DE3682D2B
:10190000722D832D9FAD0E94D7369B01AC01C6017D
:10191000B5010E94EC3769E087FF0EC0212F302F00
:101920004F2D5E2DC601B5010E94D736A30192014D
:101930000E9444370E94BD377BE0C72ED12CCC0ECD
:10194000DD1EC60ED11CD601BC9081E08B0D8C93A0
:10195000892D0E946C0B0E94BD37611104C082E08A
:101960008B0DF601808393949ECFAE014B5E5F4F4B
:10197000BE01655F7F4F8AE00E94590A9E012B5E7F
:101980003F4F27963FAF2EAF2797AE01415E5F4F87
:101990005EAF4DAF8FEF5E015BE0A50EB11C9924E9
:1019A0009A942796AEADBFAD27979D912796BFAF6E
:1019B000AEAF2797492F50E0F501E40FF51F2081C6
:1019C00023300CF4C3C08F5FA82F082E000CBB0B74
:1019D000EFE1F0E0EC0FFD1FEA0FFB1F9083E9E25F
:1019E000F0E0EC0FFD1FEA0FFB1F9083E3E3F0E054
:1019F000EC0FFD1FEA0FFB1F20832A30E4F525952D
:101A00004A0D5B1DFA0190824FEF490F042E000C26
:101A1000550B622F70E029967FAF6EAF29976FE16B
:101A2000C62ED12CCC0EDD1ECA0EDB1EE3E3F0E089
:101A3000EC0FFD1FEA0FFB1F2596FFAFEEAF2597BA
:101A400047FD3FC0F501E40FF51F608167FD39C018
:101A5000062E000C770B2996EEADFFAD29976E1779
:101A60007F073CF1F60130813417150609F02CF49C
:101A700041505109E5CF24E0C3CF31503083B50147
:101A8000630F711D2B967FAF6EAF2B972596EEAD32
:101A9000FFAD25973081FB016081360F2596EEADB5
:101AA000FFAD259730832B96EEADFFAD2B9790823F
:101AB000D9CFF601608170E0641B750B633071054E
:101AC000BCF29F5FB501690F711D422F50E0259652
:101AD0005FAF4EAF2597E9E2F0E0EC0FFD1FEA0F94
:101AE000FB1F33E3C32ED12CCC0EDD1ECA0EDB1E32
:101AF0009A3060F5AB014A195B09DB012D91BD01FC
:101B000027FD24C0022E000C330B2596AEADBFADD1
:101B100025972A173B07A4F0A081A91710F09F5F13
:101B2000E7CFAF5FA083A5014A0F511DD6013C91BD
:101B3000DA012C91230FD6012C93DA019C92ECCF81
:101B40002081421B5109433051054CF32796EEADDD
:101B5000FFAD27972DAD3EADE217F30709F021CF7A
:101B600087FD3DC081117CC08BA98031C4F169A57E
:101B700070E06F5F7F4F072E000C880B990B0E945F
:101B80008335A30192010E94E235212F302F4F2D82
:101B90005E2D0E94D8362DEC3CEC4CEC5DE30E94AF
:101BA000D836862E272E382E9FAF6F8D70E090E0AE
:101BB00080E00E948335A30192010E94E235212F2B
:101BC000302F4F2D5E2D0E94D8362DEC3CEC4CEC86
:101BD0005DE30E94D736162F072FF82EE92E912CA1
:101BE000412C512C32012196BFAD21978B2F90E0D3
:101BF0002396EEADFFAD23978E179F070CF083C0A1
:101C0000880F991F880F991FFC01E251FC4FA0809B
:101C1000B180C280D380212F302F4F2D5E2DC60181
:101C2000B5010E947C3587FD13C0282D322D432D30
:101C30005FADC601B5010E94EC3718164CF0A60145
:101C40009501C301B2010E94D8362B013C01939447
:101C50002196FFAD2197FF5F2196FFAF2197C3CF5C
:101C6000AE014F5F5F4FBE016D5C7F4F8F5F0E9483
:101C7000590AC980D12CE3E3F0E0EC0FFD1FEC0D15
:101C8000FD1D2081022E000C330BEA8143E350E05E
:101C90004C0F5D1F4E0F511DFA018081880F990B6B
:101CA0008031910514F480E190E0281739070CF495
:101CB00096CFFE01EC0DFD1D61A570E06F5F7F4FBB
:101CC000072E000C880B990B0E948335A30192010B
:101CD0000E94E235212F302F4F2D5E2D0E94D836E5
:101CE0002DEC3CEC4CEC5DE30E94D836862E272E82
:101CF000382E9FAF6FE170E06C0F7D1FC60ED71EB0
:101D0000D6016C9153CF60E070E0CB01992061F077
:101D1000692D70E090E080E00E9481359B01AC016C
:101D2000C301B2010E944437C65BDF4F0FB6F8947F
:101D3000DEBF0FBECDBFDF91CF911F910F91FF90FE
:101D4000EF90DF90CF90BF90AF909F908F907F905B
:101D50006F905F904F903F902F9008958F929F9239
:101D6000AF92BF92CF92DF92EF92FF928090DE020D
:101D70009090DF02A090E002B090E1020E946C0B14
:101D80006B017C0120E030E040E05FE30E947C35A5
:101D900087FD2AC0C701B6010E94BD37653120F515
:101DA000A5019401C701B6010E9444376B017C0173
:101DB00022E538EB4EE75FE30E94EC371816B4F0EB
:101DC00020E030E048EC52E4C701B6010E94E23561
:101DD0000E94BD37862FFF90EF90DF90CF90BF908D
:101DE000AF909F908F90089580E0F5CF84E6F3CF79
:101DF0008F929F92AF92BF92CF92DF92EF92FF921B
:101E000094E0899FF0011124E251FC4F8080918081
:101E1000A280B380C501B4010E94BD376350C12CBC
:101E2000D12C76016A32E0F52091E6023091E7028A
:101E30004091E8025091E902C501B4010E94D736F1
:101E40006B017C0120E030E0A9010E94EC371816FC
:101E500024F0F7FAF094F7F8F0942091E202309130
:101E6000E3024091E4025091E502C501B4010E94F1
:101E7000D7364B015C0120E030E0A9010E94EC372D
:101E8000181624F0B7FAB094B7F8B094A5019401ED
:101E9000C701B6010E947C3587FD02C0750164014F
:101EA000C701B601FF90EF90DF90CF90BF90AF9049
:101EB0009F908F9008957F928F929F92AF92BF9242
:101EC000CF92DF92EF92FF920F931F93CF93DF9306
:101ED00080E090E0A0E0B0E48093F2019093F30101
:101EE000A093F401B093F5018090DE029090DF02A0
:101EF000A090E002B090E102F12C8F2D0E94F80E2C
:101F00008B01D82FC92F7090F201C090F301D090AF
:101F1000F401E090F5019B01482F592F672D7C2D8E
:101F20008D2D9E2D0E94EC3718160CF448C020E031
:101F300030E040E251E4B8018D2F9C2F0E94EC3735
:101F40001816ECF120E030E040E85FE3C501B40191
:101F50000E94EC371816CCF48F2D0E94AE0E682F1D
:101F600070E090E080E00E94833520E030E048ECB3
:101F700052E40E9444379B01AC01B8018D2F9C2F85
:101F80000E94E2358B01D82FC92F98014D2F5C2F6D
:101F9000672D7C2D8D2D9E2D0E947C3587FD04C0E4
:101FA000072D1C2DDD2DCE2DC801AD2FBC2F80930C
:101FB000F2019093F301A093F401B093F501F3942F
:101FC00080E4F8129ACFDF91CF911F910F91FF908B
:101FD000EF90DF90CF90BF90AF909F908F907F90C9
:101FE00008958F929F92AF92BF92CF92DF92EF921D
:101FF000FF928090F2019090F301A090F401B090D4
:10200000F5010E94F80E6B017C0120E030E040E019
:102010005FE30E947C3587FD2AC0C701B6010E949C
:10202000BD37653120F5A5019401C701B6010E94B5
:1020300044376B017C0122E538EB4EE75FE30E94F9
:10204000EC371816B4F020E030E048EC52E4C70159
:10205000B6010E94E2350E94BD37862FFF90EF90B7
:10206000DF90CF90BF90AF909F908F90089580E0C9
:10207000F5CF84E6F3CF4F925F926F927F92BF923B
:10208000CF92DF92EF92FF920F931F93CF93DF9344
:1020900080E090E0A0E0B0E48093DE029093DF0265
:1020A000A093E002B093E102C0E08C2F0E946C0B81
:1020B0002B013C01B090DE02C090DF02D090E00224
:1020C000E090E102AC019B016B2D7C2D8D2D9E2DAE
:1020D0000E94EC371816E4F120E030E040E251E4D1
:1020E000C301B2010E94EC37181694F18C2F0E94A4
:1020F000F10F682F70E090E080E00E94833520E0CF
:1021000030E048EC52E40E944437A30192010E945F
:10211000E235F62E072F182FD92F262F372F482FCD
:10212000592F6B2D7C2D8D2D9E2D0E947C3587FD8A
:1021300003C0FB2C8601DE2D8F2D902FA12FBD2FEC
:102140008093DE029093DF02A093E002B093E1025D
:10215000CF5FC03409F0A9CFDF91CF911F910F91CC
:10216000FF90EF90DF90CF90BF907F906F905F9047
:102170004F900895CF92DF92EF92FF9294E0899F63
:10218000D0011124A251BC4F84E0689FF0011124BA
:10219000E251FC4F20813181428153816D917D91CB
:1021A0008D919C910E94D7366B017C0120E030E03C
:1021B000A9010E94EC37181624F0F7FAF094F7F80A
:1021C000F094C701B601FF90EF90DF90CF90089593
:1021D0004F925F926F927F928F929F92AF92BF9237
:1021E000CF92DF92EF92FF920F931F93E62EF42E81
:1021F0003901642F0E94BA104B015C016F2D8E2DA6
:102200000E94BA106B017C0120E030E040E05FE307
:10221000C501B4010E94D836A70196010E947C3501
:1022200087FF30C02AE939E949E55FE3C301B80116
:102230000E94E2356B017C0120E030E040EA50E48E
:102240000E947C3587FD06C0C12CD12C80EAE82E87
:1022500080E4F82EA7019601C501B4010E947C35E7
:10226000881F8827881F1F910F91FF90EF90DF90A4
:10227000CF90BF90AF909F908F907F906F905F9026
:102280004F90089580E0EFCF4F925F926F927F92D0
:102290008F929F92BF92CF92DF92EF92FF920F9315
:1022A0001F93CF93DF93CDB7DEB728970FB6F8947F
:1022B000DEBF0FBECDBF082F2A013B014901CE0171
:1022C00001966C01BC01802F0E94A20AB82E7601F3
:1022D00010E08E2D8C198B15A0F4F70181917F01F0
:1022E000F401E80FF11D9081963098F3602F0E9461
:1022F000BA10A30192010E947C3587FFEACF1F5FCD
:10230000E8CF812F28960FB6F894DEBF0FBECDBF61
:10231000DF91CF911F910F91FF90EF90DF90CF90C1
:10232000BF909F908F907F906F905F904F90089597
:102330004B9B04C04C9904C082E0089580E008954E
:1023400081E00895E82FF0E0E855FF4F8491E62FF3
:10235000F0E0E855FF4FE4918E1B082E000C990B1E
:1023600097FF03C09195819591090895CF93DF93CD
:10237000C82FD62F0E94A211EC2FF0E0E859FF4F92
:102380009491ED2FF0E0E859FF4FE4919E1BE92F67
:102390000E2E000CFF0BF7FF03C0F195E195F1093C
:1023A000E81708F4E82F8E2FDF91CF9108958091E0
:1023B00005018823A1F083E480937C0080917A005A
:1023C000806480937A0080917A0086FDFCCF9091A2
:1023D000780080917900892798278927089590E0CF
:1023E00080E008950F931F93CF93DF93EC018091CA
:1023F0004E02882309F446C08091BD0510924E021A
:10240000833009F09FC068E2CE010E94160682FF69
:1024100039C0E881F9810288F389E02D61E0CE01BD
:102420000995E881F9810688F789E02DCE010995A3
:1024300080E00E949F0580E00E949F05082F182FD2
:10244000833408F012E410934D0280E00E949F054F
:102450009E81911105C09D81891711F08F3F11F464
:10246000033040F510924D02E881F981008CF18D26
:10247000E02DCE010995E881F9810088F189E02DF0
:10248000CE0109958091BD05833009F05BC0809134
:102490004D02882309F45DC0E881F9810288F3893F
:1024A000E02D61E0CE01099581E0DF91CF911F9190
:1024B0000F91089513501093530280E00E949F05DE
:1024C0008093500280E00E949F05982F907890930F
:1024D0005402E881F9810484F585E02D682FCE014E
:1024E000099510E0E09153021E1750F480E00E941D
:1024F0009F05E12FF0E0E15FFD4F80831F5FF2CF8A
:10250000F0E0E15FFD4F1082E881F981008CF18DF0
:10251000E02DCE010995E881F9810288F389E02D4B
:1025200063E0CE01099564E2CE010E94160690E0B8
:1025300091958195910995958795909352028093F5
:102540005102A0CFE881F9810088F189E02DCE0108
:10255000099580E0AACF2F923F924F925F926F929F
:102560007F928F929F92AF92BF92CF92DF92EF9223
:10257000FF920F931F93CF93DF93CDB7DEB765978D
:102580000FB6F894DEBF0FBECDBF85EC95E00E947C
:10259000F211882371F180915302843050F19091AF
:1025A0000F02963431F5909110029C3411F5909100
:1025B00011029835F1F4909112029F33D1F42091D9
:1025C00050022B8B873071F580911302853451F5C1
:1025D000809114028F3431F580911502863411F503
:1025E00000E026E043E651E06B8985EC95E00E942F
:1025F000BB0765960FB6F894DEBF0FBECDBFDF9167
:10260000CF911F910F91FF90EF90DF90CF90BF90EF
:10261000AF909F908F907F906F905F904F903F9082
:102620002F90089581E00E94F0090E943406605CBA
:102630007D4B804F9F4F0E94860860E070E0CB0189
:102640000E948F0961E082E00E94500980E00E94B0
:102650009F0580E00E949F0580E00E949F050AE69A
:1026600011E0F80181918F010E949F05F1E001378F
:102670001F07B9F70E94BE044AE369E070E080E0FA
:1026800090E00E9471090E9443022B013C0189E005
:102690000E94C7002AE0C22ED12CE12CF12C312C53
:1026A000212C85EC95E00E94F211882309F489C061
:1026B000809150022B89281384C030915302398BAA
:1026C00061E089E00E94F7014989443008F475C04F
:1026D00080910F02863409F070C0809110028C3412
:1026E00009F06BC080911102883509F066C08091B5
:1026F00012028A3309F056C0473008F453C0E3E1B0
:10270000F2E010E000E084E0BB24BA94B80E9191AE
:1027100020ED290F2A3008F061C04AE0409F900167
:10272000419F300D1124890100531109090F111D1A
:102730008F5F883049F797E0B92EE1E0EB0DF0E0CC
:10274000E15FFD4F80818A3309F04EC00E94430251
:102750002B013C01B394B394BA8A0215130509F412
:1027600045C0C101019708171907E1F41F930F93A2
:1027700082E791E09F938F9321E030E02C0F3D1F83
:102780003F932F930E947A38482FBE016F5F7F4F8F
:1027900085EC95E00E940D070F900F900F900F9021
:1027A0000F900F90809112028F3339F439893430B1
:1027B00009F050C081E00E94F00960E089E00E94C9
:1027C000F7010E9443026419750986099709693B5C
:1027D0007B408105910508F464CF06C09A3309F067
:1027E000A7CF843009F0A9CF10E073C018018FEF94
:1027F000281A380AEA898E2F90E09C01215F3D4F0C
:102800003D8B2C8B39894A89431708F0AFCFEC896F
:10281000FD894191FD8BEC8B46015701FFEF8F1A2B
:102820009F0AAF0ABF0AC701B6010E947109D5010C
:10283000C4019F77AA27BB27892B8A2B8B2B21F4D6
:10284000C501B4010E948F092A892F5F2A8B750167
:102850006401D8CF4989473009F0AFCF8091130286
:10286000853409F0AACF809114028F3409F0A5CFE6
:1028700080911502863409F0A0CF460157018AE005
:10288000881A9108A108B10891E089169CE7990679
:10289000A104B10440F04FE06CE771E085EC95E0F5
:1028A0000E940D07A1CF80E00E94F00977276B2DD1
:1028B0005A2D492D67E070E080E090E00E94710998
:1028C00046EF4C0D68E070E080E090E00E947109F6
:1028D00011E00E943406605472448F4091090E94B6
:1028E0008608112309F485CE88E198E00FB6F894A4
:1028F000A895809360000FBE90936000FFCFFC010D
:10290000808586958695869583701F928F938481A6
:102910001F928F9380891F928F93818582958770F4
:102920001F928F938585869587701F928F938485DC
:10293000982F929596959695937085858170880FBE
:10294000880F892B1F928F93858582958F701F9298
:102950008F9387851F928F9386818F9385818F9325
:10296000878187701F928F9380811F928F938181BF
:102970001F928F939385292F2695269526958485DA
:10298000982F9295990F907E922B86958695869595
:1029900087708F939F939285838587708F939F9382
:1029A00086851F928F938CE891E09F938F937F93FE
:1029B0006F930E947A388DB79EB782960FB6F894BF
:1029C0009EBF0FBE8DBF0895CF92DF92EF92FF9210
:1029D0000F931F93CF93DF93CDB7DEB7E9970FB671
:1029E000F894DEBF0FBECDBFD82EC92E062FF72E0E
:1029F000142FE09000010E94D7111F92EF929F9335
:102A00008F93FF920F93CF92DF9289EB91E09F9388
:102A10008F939E012F5F3F4F69013F932F930E9439
:102A20007A380FB6F894DEBF0FBECDBF181684F00B
:102A300080E0E9960FB6F894DEBF0FBECDBFDF9100
:102A4000CF911F910F91FF90EF90DF90CF9008955D
:102A50009CE3E92E012F282FA60161E085EC95E08B
:102A60000E94F4048823B1F01092E9031092EA0363
:102A70001092EB031092EC0380910001893028F44E
:102A800091E0980F90930001D4CF81E080930001F2
:102A900089E0CFCF1111F0CFCBCFEF92FF920F9300
:102AA0001F93CF93DF93CDB7DEB7AF970FB6F894F0
:102AB000DEBF0FBECDBF8C01F62EBE016F5F7F4F14
:102AC0000E947F14F80181858F70E82E808180320A
:102AD00008F04DC0F11033C080910801813061F1E0
:102AE00083EC91E044E1BE016F5F7F4F0E94E414EC
:102AF000982F9F70F8018185807F892B81878F7047
:102B000049F18081885087FD80E0F8018183EE20C3
:102B100021F0F8018185807F8187F8019185878187
:102B2000887F8160877F87839F709187148281E08F
:102B300090E0968385830EC084EC91E0D3CFF2E0E1
:102B4000FF12E5CF43E0BE016F5F7F4F85EE91E05E
:102B50000E94E414AF960FB6F894DEBF0FBECDBF4F
:102B6000DF91CF911F910F91FF90EF900895F11099
:102B70001FC0809108018130C1F086EC91E044E1F2
:102B8000BE016F5F7F4F0E94E414982F9F70F80181
:102B90008185807F892B81878F70E1F28081885FBA
:102BA000803408F4B2CF8FE3B0CF87EC91E0E7CF69
:102BB000F1E0FF12C7CF44E1BE016F5F7F4F87ECAA
:102BC00091E0C6CFFC0190819A34B1F02381253089
:102BD00098F087818770833020F4823069F4213542
:102BE00058F08185282F2F7011F087FD05C0818155
:102BF000803220F0903220F080E008959032E0F3AF
:102C0000CF0120910801213021F02091ED0361E0F6
:102C1000211160E00E944D1581E008950F931F93EC
:102C2000CF93DF93CDB7DEB7E2970FB6F894DEBF50
:102C30000FBECDBF8C01BE016F5F7F4F0E947F141E
:102C4000F80181858F701F928F9389EC91E09F939B
:102C50008F938E01005D1F4F1F930F930E947A3850
:102C600044E1BE016F5F7F4FC8010E94E4140F90E2
:102C70000F900F900F900F900F90E2960FB6F89470
:102C8000DEBF0FBECDBFDF91CF911F910F91089591
:102C90001F93CF93DF93EC0188818A3431F410E0E5
:102CA000812FDF91CF911F91089589858F70B9F39E
:102CB0008B818D3338F1809108019091ED03911152
:102CC00019C011E0813009F410E088811123D1F09E
:102CD000883128F38981998597FF11C08032F8F2F5
:102CE000CE010E940E169985892F97FB87F980588F
:102CF0008987D6CF813031F40E949811E2CF80329B
:102D000070F6EECF88812985998127FF17C0803220
:102D100088F481E0903280F491E09813C0CFCE0126
:102D20000E940E169985892F97FB87F9805889870D
:102D300011E0B6CF82E0EECF92E0EFCF803238F4F0
:102D400081E0903230F491E09813E9CFA8CF82E08F
:102D5000F8CF92E0F9CFAF92BF92CF92DF92EF928D
:102D6000FF920F931F93CF93DF93CDB7DEB7699791
:102D70000FB6F894DEBF0FBECDBF5B017A016901CB
:102D8000082F10E089E1809FF001819FF00D112450
:102D9000E659FC4FDE01119601900D928A95E1F7FC
:102DA000898586958695869583708230E0F48C813E
:102DB0008F31C8F0CE0101960E9448168823B9F1E0
:102DC0009C859695969596958D85482F4295440FAE
:102DD000407E242F292B869586958695382F37702F
:102DE0002536310558F5F701E00FF11F8AE480839D
:102DF00089E1809FD001819FB00D1124A659BC4F5D
:102E0000EAE0F1E001900D928A95E1F769960FB63C
:102E1000F894DEBF0FBECDBFDF91CF911F910F9110
:102E2000FF90EF90DF90CF90BF90AF9008956981B1
:102E30008A810E94A211823018F6D5CFF6019081C6
:102E400089E1D501899FA00DB11D1124FE013196A4
:102E500001900D928A95E1F7F60180818F5F808362
:102E6000C2CF70E0FB01E855FF4F249190E0FC01D8
:102E7000E855FF4FE4912E1B68597F4FFB01649189
:102E800088599F4FFC018491681B6602B001112490
:102E90002202600D711D1124072E000C880B990B66
:102EA0000E9483350E94F7372DEC3CEC4CE45DE347
:102EB0000E94D83608952F923F924F925F926F9260
:102EC0007F928F929F92AF92BF92CF92DF92EF92BA
:102ED000FF920F931F93CF93DF93CDB7DEB7E297A7
:102EE0000FB6F894DEBF0FBECDBF98A38F8F6A8F49
:102EF0005EA34DA338A72FA31AA709A7FCA6EBA68C
:102F0000DEA6CDA6B8AAAFA69AAA89AA2A966FADC0
:102F10002A972B968FAD2B97680F7727771F2C96C4
:102F20008FAD2C97680F711D072E000C880B990B25
:102F30000E94833520E030E040E85EE30E94E23505
:102F400020E030E040E050E40E94D8366B017C0184
:102F50002D966FAD2D9770E090E080E00E94833554
:102F600020E030E048EC52E40E9444379B01AC0181
:102F7000C701B6010E94D836762E672E182F092F6A
:102F80002F8D38A13E8F2D8F3AE43C8F19A21AA2C3
:102F900080E88BA39FE39CA31B8E89E1ED8DFE8DC2
:102FA000DE01119601900D928A95E1F7F980EAE42D
:102FB000FE1609F4B7C0CE0101960E94280BB62E6A
:102FC000C72ED82EE92E272D362D412F502F0E94A7
:102FD0007C3587FD04C07B2C6C2C1D2D0E2D20E034
:102FE00030E040E850E4672D762D812F902F0E942D
:102FF0007C3587FD04C0712C612C10E800E46A8DDB
:103000008F2D0E9431174B015C01272D362D412F4A
:10301000502F0E94EC3718160CF484C06A8DCE0134
:1030200001960E94FD0A1B012C012AE939E949E5B4
:103030005FE36E897F89888D998D0E94E2356B01EF
:103040007C0120E030E040EA50E40E947C3587FDBE
:1030500006C0C12CD12C20EAE22E20E4F22E2AE96F
:1030600039E949E15FE3C701B6010E94E2356B012E
:103070007C01AC019B01C201B1010E94EC37181622
:103080000CF450C0A7019601C201B1010E9444375F
:103090006B017C012DEC3CEC4CEC5DE30E94EC37C9
:1030A00018163CF09DECC92E9CECD92EED2C9DE31E
:1030B000F92E272D362D412F502FC501B4010E9426
:1030C00044374B015C012DEC3CEC4CEC5DE30E9481
:1030D000EC3718163CF08DEC882E8CEC982EA92C31
:1030E0008DE3B82EA5019401C701B6010E94E23517
:1030F0006B017C0120E030E040E05FE30E947C3522
:1031000087FF10C029A13AA14BA15CA1B601C7015C
:103110000E947C3587FF06C0C9A2DAA2EBA2FCA2FE
:10312000FB8DFC8F2B8D2F5F2B8F8D8D9E8D499668
:103130009E8F8D8F253009F030CF9C8D9A3409F405
:1031400037C089E1092F10E0EF8DF8A1899FE00DCC
:10315000F11D1124DE01119601900D928A95E1F77F
:10316000F980EF2DF0E0E855FF4F8491482F9A81C8
:103170003A8DE32FF0E0E855FF4F282F30E09032F2
:1031800080F4E49121503109E21713068CF0288570
:103190002770243010F5EFE1EF1560F49032E8F479
:1031A0000BC0E4912F5F3F4FE217130681F37CF3CE
:1031B00080E06CC0903288F030EF3F0D303268F024
:1031C000622F70E0853010F049E0481BE4E0F0E049
:1031D000E41BF109E617F7075CF7EFA1F8A5908368
:1031E000233008F023E0EDA1FEA120836A8DCE01FB
:1031F00001960E94FD0A20E030E040E251E40E9486
:10320000E2350E94BD378D81681708F4682FEBA561
:10321000FCA560836A8D8F2D0E94B6119A85292F97
:1032200022952770281708F4282FE9A5FAA52083EE
:10323000892F8F70EDA5FEA5808397FB992790F9C4
:10324000EFA5F8A990838E819F810196E9A9FAA93B
:1032500091838083898586958695869583708F5F17
:103260002996EEADFFAD2997808389E1809FD0013B
:10327000819FB00D11242F8D38A1A20FB31FEAE05A
:10328000F1E001900D928A95E1F781E0E2960FB6A8
:10329000F894DEBF0FBECDBFDF91CF911F910F918C
:1032A000FF90EF90DF90CF90BF90AF909F908F9066
:1032B0007F906F905F904F903F902F9008950E9465
:1032C00031172DEC3CEC4CEC5DE30E94D8360E94AB
:1032D000BD37862F08952F923F924F925F926F9243
:1032E0007F928F929F92AF92BF92CF92DF92EF9296
:1032F000FF920F931F93CF93DF93CDB7DEB7CE5BD3
:10330000D1400FB6F894DEBF0FBECDBF9E01225054
:103310003F4F7901CD56DE4F1882C359D14000E0AE
:10332000802F0E94AE0E182F802F0E94F10F811760
:1033300008F4182FD7011D937D01163008F43FC003
:10334000BE01625C7E4F50E040E0FB01CD56DE4F97
:103350008880C359D140481508F0B0C19A01DB01FB
:10336000DD90BD014F5F5F4FAEEFB0E0AC0FBD1F12
:10337000AD0DB11D8C91811748F7882DA82F082E0F
:10338000000CBB0B2A173B0764F4BD016E0F7F1FB7
:10339000AB0141505109DA019C91DB019C938150B2
:1033A000EDCFE20FF31F0083CD56DE4F2881C359C6
:1033B000D1402F5FCD56DE4F2883C359D1400F5FD8
:1033C000003409F0ADCFAE0142545F4FC555DE4F1A
:1033D00059834883CB5AD140CE0182589F4FC3575F
:1033E000DE4F99838883CD58D140DE01A25CBE4F69
:1033F000C956DE4FB983A883C759D140CB56DE4F9B
:1034000099838883C559D140C155DE4F598348837C
:10341000CF5AD14000E01A01CD56DE4F8880C35903
:10342000D140081509F47FC1C956DE4FA881B98182
:10343000C759D1401D91C956DE4FB983A883C759DA
:10344000D140812F0E94F80E2B013C012AE939E975
:1034500049E55FE30E94E2356B017C0120E030E04A
:1034600040EA50E40E947C3587FD06C0C12CD12C77
:10347000E0EAEE2EE0E4FE2E9E0122503F4FB7011F
:10348000A601812F0E944411C157DE4F8883CF5877
:10349000D140FE01E258FF4FC756DE4FF983E88363
:1034A000C959D140D12CC12C812F90E07EEF872EBD
:1034B000912C8C0E9D1E880E991EC556DE4F99824A
:1034C0008882CB59D140C157DE4F9880CF58D14028
:1034D000892C912CC355DE4F99828882CD5AD140D8
:1034E0009C0128553F4FCD55DE4F39832883C35A61
:1034F000D140AC0148595F4FCB55DE4F59834883CB
:10350000C55AD140C01610F00C947D2EC756DE4F20
:10351000A881B981C959D140FD90C756DE4FB98302
:10352000A883C959D140EEEFF0E0EC0FFD1FEF0D7D
:10353000F11D80818695C556DE4FE881F981CB5912
:10354000D1409081891708F0EAC0612F8F2D0E9429
:10355000BA10C156DE4F688379838A839B83CF5923
:10356000D1402DEC3CEC4CEC5DE3C301B2010E9478
:10357000D7364B015C012AE939E949E15FE30E9452
:103580007C3587FD08C06AE9862E69E9962E69E1D7
:10359000A62E6FE3B62EA5019401C156DE4F6881B9
:1035A00079818A819B81CF59D1400E947C3587FFE8
:1035B000B6C0F101EC0DFD1DE0808E2D0E94F80ECD
:1035C0002AE939E949E55FE30E94E2354B015C01F4
:1035D00020E030E040EA50E40E947C3587FD06C0E0
:1035E000812C912C50EAA52E50E4B52E9E0122503C
:1035F0003F4FB501A4018E2D0E944411282F30E0C9
:103600002F5F3F4FC355DE4F88809980CD5AD14000
:103610002815390584F1C157DE4F9880CF58D14025
:10362000981608F47CC0CD55DE4FE881F981C35A65
:10363000D14094912E2D30E0F901E855FF4FE491EF
:103640009E130BC0CB55DE4FE881F981C55AD1409E
:103650009491F901E859FF4FE491953018F0F9E0A1
:10366000F91B9F2FE53020F049E0842E8E1AE82DBB
:10367000E91708F054C0402F842F042E000C990B3A
:10368000C816D9061CF59C0121503109EEE7F0E07F
:10369000EC0FFD1FE20FF31F5081EEE7F0E0EC0F9F
:1036A000FD1FE80FF91F5083220D331DD9012C9106
:1036B000820D931DFC0120834150DECFCD56DE4F9D
:1036C0008880C359D140E80DF11D6DCEEEE7F0E0E2
:1036D000EC0FFD1FEC0DFD1DF082F101EC0DFD1D49
:1036E00010830F5FC155DE4F28813981CF5AD140F9
:1036F0002F5F3F4FC155DE4F39832883CF5AD140CA
:10370000CB56DE4F48815981C559D1404F5F5F4F3D
:10371000CB56DE4F59834883C559D1407DCEFFEF4C
:10372000CF1ADF0AEFCEFE01319680E4DF011D9251
:103730008A95E9F7CD56DE4FB881C359D140BF5FB6
:10374000CF54DE4FB883C15BD14021E0C956DE4F74
:103750002883C759D140CB56DE4F1882C559D14076
:10376000C155DE4F1882CF5AD140212CAE014258AC
:103770005E4FC357DE4F59834883CD58D140CF5455
:10378000DE4F8880C15BD140C956DE4F9880C75953
:10379000D140891409F45DC3C555DE4FA881B981B4
:1037A000CB5AD1401D91C555DE4FB983A883CB5A62
:1037B000D1401A3409F423C3CB56DE4FB881C55922
:1037C000D140BF5FCB56DE4FB883C559D140812E63
:1037D000912CC955DE4F99828882C75AD140E1E0C9
:1037E000F0E0EC0FFD1FE80DF91DB083EEE3F1E012
:1037F000EC0FFD1FE20DF11D108301E0020DC55518
:10380000DE4FE881F981CB5AD14031973AE4932ECB
:103810009082812F0E94F80EC756DE4F6883C959E7
:10382000D140C156DE4F7883CF59D140C556DE4FC7
:103830008883CB59D140C355DE4F9883CD5AD140B0
:103840002AE939E949E55FE30E94E235962EA72E81
:10385000B82ED92E20E030E040EA50E40E947C35BA
:1038600087FD06C0912CA12C90EAB92E20E4D22E1F
:10387000422C202E21E0C157DE4F2883CF58D14063
:10388000C357DE4F8880CD58D140CB55DE4F88825C
:10389000C55AD140421408F0FEC0EEE3F1E0EC0F4F
:1038A000FD1FE40DF11D0081101709F44FC0802F9A
:1038B0000E94F80E2AE939E949E55FE30E94E23502
:1038C000862E772E682E592E20E030E040EA50E414
:1038D0000E947C3587FF3FC0C157DE4F2881CF58FB
:1038E000D140243008F476C0BE0162587E4F802F4C
:1038F0000E94A20AC82EAE0142585E4FCD55DE4F3F
:1039000059834883C35AD140FA01AAE4EA2E80E0E1
:103910009E2FC357DE4F5881CD58D140951B9C1523
:1039200008F59191A1E0B0E0AC0FBD1FA90FB11D4A
:103930002C91CB56DE4FA881C559D140A213E8CFB8
:10394000813009F447C0E92E81E0E2CF892C7A2C3E
:103950006B2C5D2CC1CF812C712CB0EA6B2E80E4D6
:10396000582EBACF8130B1F5CD55DE4F8881C35A7C
:10397000D140CB55DE4FB881C55AD1408B1B8C1539
:1039800008F087C0CD55DE4FE881F981C35AD14098
:10399000F190CD55DE4FF983E883C35AD140E1E081
:1039A000F0E0EC0FFD1FEF0DF11D80818111DCCFE8
:1039B000602F8F2D0E94BA10282D372D462D552DA2
:1039C0000E947C3587FFD0CF6E2D8F2D0E945F190E
:1039D000813051F6C555DE4FE880F980CB5AD14091
:1039E000C956DE4F3880C759D140CD56DE4FF881D9
:1039F000C359D1403F1609F44CC0D701CD907D0189
:103A0000BAE4CB1609F443C0602F8C2D0E945F19D5
:103A10008130E9F5602F8C2D0E94BA109B01AC011A
:103A2000682D772D862D952D0E94EC37181664F0A1
:103A3000612F8C2D0E94BA10292D3A2D4B2D5D2D12
:103A40000E947C3587FF23C0E1E0F0E0EC0FFD1F12
:103A5000EC0DF11DCB56DE4F2881C559D140208396
:103A6000EEE3F1E0EC0FFD1FE20DF11DC0822394A7
:103A7000F70131973AE43083C157DE4F4881CF5880
:103A8000D1404F5FC157DE4F4883CF58D140339468
:103A9000ACCF4394FFCE812F90E0FC01E855FF4F5F
:103AA000C490FC01E859FF4FF490CE010196CB552C
:103AB000DE4F99838883C55AD1402C01EF2C0C2D01
:103AC000712C612CCD55DE4F1882C35AD14033245E
:103AD0003394812CD2018D912D01CB56DE4FB881CC
:103AE000C559D140B81336C01815A1F1612F882DE2
:103AF0000E94BA109B01AC01692D7A2D8B2D9D2D52
:103B00000E947C3587FD26C03394F301E855FF4FB2
:103B1000E491EC1508F4CE2E0E1708F40E2FF301E5
:103B2000E859FF4FE491EF1508F4FE2EEE1608F465
:103B3000EE2E612F882D0E945F19813059F4CD55EA
:103B4000DE4FE881C35AD140EF5FCD55DE4FE883A9
:103B5000C35AD1408394FFEF6F1A7F0A20E4821288
:103B6000B9CF812F0E946C0B562E672E782E892E8E
:103B7000C157DE4F3881CF58D1403D3308F03FC1A7
:103B8000262F372F482F592FC756DE4F6881C95926
:103B9000D140C156DE4F7881CF59D140C556DE4F56
:103BA0008881CB59D140C355DE4F9881CD5AD14041
:103BB0000E94EC3718160CF02EC1C756DE4FB881A4
:103BC000C959D140C156DE4FA881CF59D140C55601
:103BD000DE4FF881CB59D140C355DE4FE881CD5A35
:103BE000D14020E030E040E251E46B2F7A2F8F2F5C
:103BF0009E2F0E94E2350E94BD37631508F4FFC076
:103C00000C19EF18CC24C394E01608F009C1C00EBB
:103C1000FC2C45E04C1510F4E5E0FE2E652D762DCC
:103C2000872D982D0E94BD37862EC756DE4F68819E
:103C3000C959D140C156DE4F7881CF59D140C556C0
:103C4000DE4F8881CB59D140C355DE4F9881CD5A84
:103C5000D1400E94BD37681508F4862EA82DC157A3
:103C6000DE4FE881CF58D140AE0FBB27BB1FCD013F
:103C70009D01220F331F820F931FFF9C900111247F
:103C8000821793070CF4BBC023E333E343E35FE302
:103C9000692D7A2D8B2D9D2D0E94E2352B013C0143
:103CA0002CE53FE842E05FE30E947C3587FDBAC027
:103CB0002EEA37E441EC5FE3C301B2010E94EC3726
:103CC000181644F46EEA462E67E4562E61EC662E12
:103CD0006FE3762E9E0122503F4F4901F12CD12CEB
:103CE000AC2CB12C3FEFA31AB30ACB55DE4FA88101
:103CF000B981C55AD1408D91CB55DE4FB983A88388
:103D0000C55AD140CB56DE4FB881C559D140B817FE
:103D100041F1612F8D2D0E94BA10C157DE4F68838B
:103D200079838A839B83CF58D140A30192010E945B
:103D3000EC371816B4F0F4018081853008F07BC0B0
:103D400020E030E040E45FE3C157DE4F68817981D5
:103D50008A819B81CF58D1400E94EC3718160CF015
:103D6000F394D3942FEF821A920A30E4D312BDCF8A
:103D70003F1408F444C0EEEFF0E0EC0FFD1FC9550E
:103D8000DE4F88809980C75AD140E80DF91D8081A7
:103D9000C155DE4F3881CF5AD14025E0329FF00126
:103DA0001124DF01AA50BE4F1C9311968C93E8504A
:103DB000FE4F8F2D8295880F880F807C432D4F7387
:103DC000342E382A3082F694F694CD55DE4F888111
:103DD000C35AD1408295807F5F2D5F70F52EF82AFF
:103DE000F182E29440EFE4220F70E02AE2823F5F2A
:103DF000C155DE4F3883CF5AD140353051F1C956C5
:103E0000DE4F8881C759D1408F5FC956DE4F888306
:103E1000C759D140B4CCB52DA62DF72DE82DE1CE54
:103E2000CE0CF6CE5CE5452E5FE8552E52E0652EB1
:103E30005FE3752E4FCFF4E0FC1508F491CF612FAE
:103E40008D2D0E945F198A151B0409F00CF488CF90
:103E500088CFC457DE4F1882CC58D140DE01A2541F
:103E6000BF4FC555DE4FB983A883CB5AD140FE0161
:103E70003196C355DE4FF983E883CD5AD1408D0189
:103E80000B5F1F4F9F01BE0162507F4FCD015AE46F
:103E9000DC011D92CD01FB015193BF0149E1EAE034
:103EA000F1E0D90101900D924A95E1F7275E3F4F6D
:103EB0000817190769F79E0122503F4FCA54DE4F79
:103EC00039832883C65BD1404AE653E0C854DE4FAD
:103ED00059834883C85BD140CB56DE4F1882C55901
:103EE000D14089E1C854DE4FE881F981C85BD140F7
:103EF000DE01A258BF4F01900D928A95E1F7EF962F
:103F00008FACEF97CD56DE4F8882C359D140282D14
:103F10002A3409F44BC0CB57DF4F8881C558D040B5
:103F20008770843008F0DFC3203208F0D8C321E066
:103F3000C158DF4F9881CF57D040903208F0D1C39D
:103F400091E0291709F4CFC3CD56DE4F9881C359AC
:103F5000D1409051903208F4C6C390E0CD56DE4F68
:103F60008880C359D140E82DF0E0E855FF4FE49137
:103F7000E53020F029E0922E9E1AE92D24E030E071
:103F80002E1B3109281739070CF4ADC39E012457A5
:103F90003E4FAE0142505F4FBE016F5F7F4FCB5629
:103FA000DE4F8881C559D1400E94AB16CB56DE4FFB
:103FB000B881C559D140BF5FCB56DE4FB883C559D4
:103FC000D140C854DE4FE881F981C85BD140799671
:103FD000C854DE4FF983E883C85BD140CA54DE4F32
:103FE00028813981C65BD1402F5F3F4FCA54DE4FD5
:103FF00039832883C65BD140B53009F072CF46EFD4
:1040000051E0CD56DE4F59834883C359D140CB563A
:10401000DE4F19821882C559D1408EE790E08C0F8F
:104020009D1F0696C854DE4F99838883C85BD14094
:10403000CB56DE4F9880C559D140C155DE4F98818F
:10404000CF5AD140991610F00C94112EC555DE4F61
:10405000A881B981CB5AD1408C91823008F4EEC24C
:10406000CD56DE4FE881F981C359D14080810E944D
:10407000F80E2AE939E949E55FE30E94E2351B01C0
:10408000C756DE4F8883C959D140C156DE4F988349
:10409000CF59D14020E030E040EA50E40E947C3526
:1040A00087FD0EC0212C312CF0EAC756DE4FF88375
:1040B000C959D14020E4C156DE4F2883CF59D140A1
:1040C00085E0CB56DE4F48815981C559D140849F48
:1040D000F001859FF00D1124DF01A650BE4F8C9199
:1040E000682F6F7082958F70A62FA80FBB27BB1FFC
:1040F000E750FE4F608162956F706A0F7B2F711DD4
:10410000072E000C880B990B0E94833520E030E0CD
:1041100040E85EE30E94E23520E030E040E050E419
:104120000E94D8366B017C01CD56DE4FE881F981C3
:10413000C359D140618170E090E080E00E948335F6
:1041400020E030E048EC52E40E9444379B01AC018F
:10415000C701B6010E94D836CD54DE4F6883C35BD9
:10416000D140CC54DE4F7883C45BD140CB54DE4F7A
:104170008883C55BD140CA54DE4F9883C65BD1406B
:104180009E0122503F4FCD55DE4F39832883C35ABD
:10419000D1404AE653E0CB55DE4F59834883C55A98
:1041A000D140BAE48B2EA12CB12C58ECC157DE4F74
:1041B0005883CF58D14082ECC956DE4F8883C75907
:1041C000D14010E089E1CB55DE4FE881F981C55A35
:1041D000D140DE01A258BF4F01900D928A95E1F7C0
:1041E000EF969FADEF97C556DE4F9883CB59D140E0
:1041F0009A3409F4C6C1CD55DE4FA881B981C35A9E
:10420000D1408C919812BDC1CB57DF4F6881C55802
:10421000D04062956F7070E090E080E00E94813540
:104220002FE832EC45EF5CE30E94E235C955DE4FE2
:10423000688379838A839B83C75AD140CD56DE4FEA
:10424000E881F981C359D140C0806C2DCE018258DC
:104250009F4F0E94FD0A2B013C0120E030E040E826
:104260005FE30E94EC37181634F0412C512CA0E883
:104270006A2EAFE37A2E2AE939E949E55FE3CD56A4
:10428000DF4F688179818A819B81C359D0400E9428
:10429000E235D62EE72EF82E092F20E030E040EA56
:1042A00050E40E947C3587FD05C0D12CE12CF0EA5A
:1042B000FF2E00E49101C756DE4F4881C959D14015
:1042C000C156DE4F5881CF59D1406D2D7E2D8F2D97
:1042D000902F0E947C3587FF0CC0D22CE32CC75650
:1042E000DE4FF880C959D140C156DE4F0881CF5901
:1042F000D1402D2D3E2D4F2D502FC301B2010E94D4
:1043000044379B01AC010E94E2359B01AC01C955C9
:10431000DE4F688179818A819B81C75AD1400E9492
:10432000D736C955DE4F688379838A839B83C75A02
:10433000D1406C2DC556DE4F8881CB59D1400E94AB
:1043400031172B013C01CE0182589F4F0E94280B50
:10435000D62EE72EF82E092FCD54DE4F2881C35BD1
:10436000D140CC54DE4F3881C45BD140CB54DE4FBA
:104370004881C55BD140CA54DE4F5881C65BD140ED
:104380000E947C3587FF14C0CD54DE4FD880C35BBC
:10439000D140CC54DE4FE880C45BD140CB54DE4FDB
:1043A000F880C55BD140CA54DE4F0881C65BD1405E
:1043B0002D2D3E2D4F2D502FC301B2010E944437A9
:1043C0009B01AC010E94E2359B01AC01C955DE4F57
:1043D000688179818A819B81C75AD1400E94D736F2
:1043E0006B017C01C556DE4F6881CB59D140C15865
:1043F000DF4F8881CF57D0400E943117C955DE4F1B
:10440000688379838A839B83C75AD140CB57DF4F18
:104410008881C558D0408770C556DE4F8883CB59F8
:10442000D140682F70E090E080E00E948335C9554C
:10443000DE4F288139814A815B81C75AD1400E9471
:10444000D83620E030E040E251E40E944437A70132
:1044500096010E94D836D62EE72EF82E092F2DEC85
:104460003CEC4CE45DE3B501C157DE4F8881CF5889
:10447000D140C956DE4F9881C759D1400E94D836E5
:104480009B01AC016D2D7E2D8F2D902F0E94EC375E
:1044900087FFEAC32DEC3CEC4CE45DE3B501C1576A
:1044A000DE4F8881CF58D140C956DE4F9881C75919
:1044B000D1400E94D7369B01AC016D2D7E2D8F2DF2
:1044C000902F0E94EC3787FD5CC039E1389D900148
:1044D0001124CF54DE4F39832883C15BD140F901C9
:1044E000E659FC4FCD56DE4FA881B981C359D14062
:1044F0006C9180810E943117C955DE4F68837983A2
:104500008A839B83C75AD1402DEC3CEC4CE45DE39D
:10451000C301B2010E94D8369B01AC01C955DE4FE0
:10452000688179818A819B81C75AD1400E94EC378A
:1045300018160CF499C3C955DE4F288139814A8178
:104540005B81C75AD140C301B2010E94D7362DEC1E
:104550003CEC4CE45DE30E947C3587FF12C0CF54F5
:10456000DE4FE881F981C15BD140EF58FC4F80817B
:104570008770C556DE4FB881CB59D1408B1708F4F0
:1045800073C31F5FCB55DE4FE881F981C55AD14017
:104590007996CB55DE4FF983E883C55AD140CD5586
:1045A000DE4F28813981C35AD1402F5F3F4FCD550F
:1045B000DE4F39832883C35AD140153009F002CE2B
:1045C000CD56DE4FA881B981C359D14011968C9147
:1045D00011978333B0F0CB56DE4F28813981C5590E
:1045E000D140129FF001139FF00D1124E750FE4FB0
:1045F0008081803430F08C918051BB24B394803220
:1046000008F0B12CAE0142505F4F6A010AE613E098
:10461000F12CE12CE9E1AE2E8E2DD8019C919A343B
:1046200009F030C3BFEFEB1AFB0A075E1F4FEFEF35
:10463000CE1ADE0AF5E0EF16F10471F7C555DE4F2C
:10464000E881F981CB5AD1407190C555DE4FF9838D
:10465000E883CB5AD140F1E07F122BC7CE018250C4
:104660009F4F2AE633E0312C212C49E1F901DE018C
:10467000A258BF4F01900D924A95E1F7EF96BFAC5B
:10468000EF977AE4872EB81429F0DC014C91941648
:1046900009F43FC3BFEF2B1A3B0A275E3F4F019639
:1046A000E5E02E16310409F7CB56DE4F888199815B
:1046B000C559D1400196CB56DE4F99838883C559A1
:1046C000D140CD56DE4FA881B981C359D14015964E
:1046D000CD56DE4FB983A883C359D140A9CC22E07F
:1046E00027CC92E02ECC2AE939E949E55FE3CD56A3
:1046F000DF4F688179818A819B81C359D0400E94B4
:10470000E235CD55DE4F6883C35AD140CB55DE4FDD
:104710007883C55AD140C955DE4F8883C75AD140E6
:10472000CF54DE4F9883C15BD14020E030E040EAB7
:1047300050E40E947C3587FD16C0CD55DE4F1882AF
:10474000C35AD140CB55DE4F1882C55AD14020EA1A
:10475000C955DE4F2883C75AD14030E4CF54DE4FCD
:104760003883C15BD140CE0182589F4F0E94280BF5
:10477000C554DE4F6883CB5BD140C454DE4F788391
:10478000CC5BD140C354DE4F8883CD5BD140C25453
:10479000DE4F9883CE5BD14046EF51E0C156DE4FED
:1047A00059834883CF59D140C556DE4F19821882AC
:1047B000CB59D140712C612C58ECC157DE4F588336
:1047C000CF58D14082E4C956DE4F8883C759D140C3
:1047D0008AE4882EC556DE4F9880CB59D140C75603
:1047E000DE4F9882C959D140C155DE4F2881CF5A3A
:1047F000D140921608F023C2C156DE4FA881B9817C
:10480000CF59D1409C9025E0C556DE4FE881F98113
:10481000CB59D1402E9FC0012F9F900D1124FC0138
:10482000E750FE4F608162956F70C654DE4F68831B
:10483000CA5BD14086509E4FDC018C91682F6F700F
:1048400082958F70680F7727771FC654DE4FB88127
:10485000CA5BD1406B0F711D072E000C880B990BA2
:104860000E94833520E030E040E85EE30E94E235BC
:1048700020E030E040E050E40E94D8366B017C013B
:10488000C156DE4FE881F981CF59D140618170E096
:1048900090E080E00E94833520E030E048EC52E474
:1048A0000E9444379B01AC01C701B6010E94D83673
:1048B0005B016C019B01AC01C554DE4F6881CB5B91
:1048C000D140C454DE4F7881CC5BD140C354DE4F1D
:1048D0008881CD5BD140C254DE4F9881CE5BD14000
:1048E0000E947C3587FD14C0C554DE4FA880CB5B89
:1048F000D140C454DE4FB880CC5BD140C354DE4FAE
:10490000C880CD5BD140C254DE4FD880CE5BD14051
:1049100020E030E040EC50E4B501C6010E947C3557
:1049200087FD06C0A12CB12C10ECC12E00E4D02EC6
:10493000892D0E94F80E2AE939E949E55FE30E94D2
:10494000E2357B018C0120E030E040EA50E40E9437
:104950007C3587FD04C0E12CF12C00EA10E49701BE
:10496000A801CD55DE4F6881C35AD140CB55DE4FEB
:104970007881C55AD140C955DE4F8881C75AD14088
:10498000CF54DE4F9881C15BD1400E94EC3718169E
:10499000A4F4CD55DE4FE880C35AD140CB55DE4F4D
:1049A000F880C55AD140C955DE4F0881C75AD14059
:1049B000CF54DE4F1881C15BD140692DCD56DE4FFB
:1049C0008881C359D1400E9431171B012C019501E8
:1049D000A6010E94EC3718160CF410C1692DCE0107
:1049E00082589F4F0E94FD0ACD54DE4F6883C35BFF
:1049F000D140CC54DE4F7883C45BD140CB54DE4FE2
:104A00008883C55BD140992E9701A8010E94EC379D
:104A100018160CF4F3C09501A601C201B1010E9461
:104A200044379B01AC010E94E2355B016C0120E040
:104A300030E040E85FE3CD54DE4F6881C35BD14096
:104A4000CC54DE4F7881C45BD140CB54DE4F88819B
:104A5000C55BD140992D0E94EC3718160CF0EAC0C6
:104A6000CD54DE4FB881C35BD140CC54DE4FA8811A
:104A7000C45BD140CB54DE4FF881C55BD140E92DFA
:104A80009701A8016B2F7A2F8F2F9E2F0E944437FA
:104A90009B01AC010E94E235A60195010E94D83627
:104AA0007B018C01C957DF4F8881C758D0408F7078
:104AB00041F0C158DF4F8881CF57D04080518032BC
:104AC000C8F0C654DE4FF881CA5BD1406F2F70E04A
:104AD00090E080E00E9481352AE037ED43EA5CE314
:104AE0000E94E2359B01AC01B701C8010E94D73694
:104AF0007B018C0126E636E646EE5FE3B701C8018E
:104B00000E94EC3718160CF479C02DEC3CEC4CE408
:104B10005DE3672D762DC157DE4F8881CF58D14098
:104B2000C956DE4F9881C759D1400E94D7369B01A4
:104B3000AC01B701C8010E947C3518160CF04DC0BD
:104B40002DEC3CEC4CE45DE3672D762DC157DE4F38
:104B50008881CF58D140C956DE4F9881C759D1407E
:104B60000E94D8369B01AC01B701C8010E947C3578
:104B7000181614F125E0289DF0011124EA50FE4F8B
:104B80006081CE0182589F4F0E94FD0A9B01AC01BB
:104B9000CD54DE4F6881C35BD140CC54DE4F788169
:104BA000C45BD140CB54DE4F8881C55BD140992D89
:104BB0000E947C3587FD11C0E72CF62CC157DE4FD3
:104BC0000881CF58D140C956DE4F1881C759D1400E
:104BD000C756DE4F8882C959D1407E2C6F2CC157F1
:104BE000DE4F0883CF58D140C956DE4F1883C759CE
:104BF000D140C756DE4F8880C959D140C556DE4FD7
:104C000048815981CB59D1404F5F5F4FC556DE4F28
:104C100059834883CB59D140C156DE4F8881998151
:104C2000CF59D1400596C156DE4F99838883CF591D
:104C3000D140D0CDB0E0A0E0F0E8EFE321CF9AE49E
:104C4000891609F4A3C9EEEBF0E0EC0FFD1FE80DA7
:104C5000F11D80818F5F8083CA54DE4FA881B981A6
:104C6000C65BD1408C92A2C9AD2CBE2CC157DE4F81
:104C7000F882CF58D140C956DE4F0883C759D1407A
:104C8000812E7FCCD6019C919912CCCC8E1409F444
:104C9000C9CCBB20F1F0AE9CF001AF9CF00D11240B
:104CA000EF58FC4F908192959F7099F0F801258103
:104CB00036812230310568F09381933350F02181A1
:104CC0002032F8F42091E803291708F4292F2093C3
:104CD000E8039E0124573E4FAE0142505F4FBE0194
:104CE0006F5F7F4F0E94AB16C555DE4FA881B9811B
:104CF000CB5AD1408C9181508C93813009F092CC69
:104D00009DCC2091E703291708F4292F2093E7036E
:104D1000E0CFCD56DE4FA881B981C359D1401C9157
:104D200011968C90C157DE4F8882CF58D14085E0D4
:104D3000CB56DE4F28813981C559D140829FF00181
:104D4000839FF00D1124DF01A850BE4F9C91392F95
:104D50003F73C956DE4F3883C759D1409295969517
:104D60009695937011968C918F70880F880F892B70
:104D7000C756DE4F8883C959D140DF01A750BE4FC7
:104D80004C9042946FE04622E650FE4F0081402F47
:104D90004F70542E02950F70612FCE0182589F4F95
:104DA0000E94FD0A6B017C01612F8B2D0E94B611C0
:104DB000682ECB57DF4F8881C558D04083FD52C045
:104DC00091E0103208F092E0C158DF4F8881CF5750
:104DD000D040803208F017C281E0981709F442C031
:104DE0002AE939E949E55FE3CD56DF4F68817981EA
:104DF0008A819B81C359D0400E94E2354B015C01FE
:104E000020E030E040EA50E40E947C3587FD06C097
:104E1000812C912C50EAA52E50E4B52E20E030E0F4
:104E200040E85FE3C501B4010E94D8369B01AC01A4
:104E3000C701B6010E94EC3718161CF053E0561556
:104E400088F4CB57DF4F8881C558D0408860CB5756
:104E5000DF4F8883C558D04062E0CE0182589F4F13
:104E60000E944D15EF966FADEF97161709F445C0E8
:104E7000C957DF4F8881C758D04082958770861503
:104E800010F4862D877087708295807FC957DF4F19
:104E90009881C758D0409F78892BC957DF4F8883A6
:104EA000C758D040812F90E088559F4FFC01549106
:104EB000C158DF4F7881CF57D040272F30E0285599
:104EC0003F4FF9014491541709F4A5C1462F50E012
:104ED00048555F4FFC01703208F097C1A491FA0168
:104EE000B491AB1708F497C1FC012491FA014491E5
:104EF000241391C2EF961FAFEF97CD57DF4F688015
:104F00007980C358D04061147104B9F020E030E0DA
:104F100040E251E4C701B6010E94E2350E94BD376C
:104F2000CE57DF4F8881C258D040681708F4682FE9
:104F3000CE57DF4F6883C258D040C157DE4F8880BC
:104F4000CF58D140CF57DF4F8882C158D04024E09E
:104F5000129FF0011124E251FC4F80819181A281C6
:104F6000B381C157DF4F88839983AA83BB83CF580E
:104F7000D040812F0E94F80E4B015C01CD56DF4FCF
:104F800088829982AA82BB82C359D040942D92957F
:104F9000907FCB57DF4F8881C558D0408F70892BC9
:104FA000CB57DF4F8883C558D040352D3770532EEF
:104FB000CA57DF4F8881C658D04088710770902F3C
:104FC0009295990F907E832B892BCA57DF4F888348
:104FD000C658D040812F0E946C0B20E030E048EC96
:104FE00052E40E94E2350E94BD37C857DF4F288146
:104FF000C858D040C757DF4F4881C958D040342FD8
:105000003770220F331FC901860F971F23E0E22E4E
:10501000F12CB7010E944C38C857DF4F6883C8583D
:10502000D040172F1770487F142B20E030E048EC59
:1050300052E4C501B4010E94E2350E94BD37212F20
:10504000269526952695C657DF4F3881CA58D040F9
:10505000E32FE295EE0FE07E4E2F422B232F269575
:1050600026952695522F5770440F551FCA01860F5B
:10507000971FB7010E944C38862F880F880F880F22
:105080001770182BC757DF4F1883C958D040262FE9
:10509000229526952770307C7770770F770F770FE2
:1050A000232B272BC557DF4F4881CB58D040842F67
:1050B00082958F7090E0880F991F840D911DB70124
:1050C0000E946038362F3295307F4F70342B922FEC
:1050D0009295969596959370832F8170880F880F7F
:1050E000892B90E0880F991F850D911DB7010E94B3
:1050F0006038762F7295770F770F707C2F73272B80
:10510000C657DF4F2883CA58D04062FB222720F9B8
:105110003E7F232B822F8695877090E0880F991F02
:10512000800F911DB7010E9460386770660F217F64
:10513000262BC557DF4F2883CB58D040C457DF4FAD
:105140008881CC58D04090E0880F991FC157DE4F1E
:105150008880CF58D140880D911DB7010E946038DA
:10516000C457DF4F6883CC58D040C357DF4F888186
:10517000CD58D04090E0880F991FC956DE4F9880D7
:10518000C759D140890D911DB7010E946038C3579E
:10519000DF4F6883CD58D040C257DF4F8881CE584B
:1051A000D04090E0880F991FC756DE4F8880C959BC
:1051B000D140880D911DB7010E946038C257DF4F62
:1051C0006883CE58D040C301019681362AEE9207FB
:1051D00010F080E69AEECD57DF4F99838883C3584D
:1051E000D0401092090189E1829DD001839DB00DCC
:1051F0001124A659BC4FFE01E258FF4F01900D92B9
:105200008A95E1F751CA82E0E8CDA491FA01B49100
:10521000BA1708F069CECB57DF4F4881C558D04048
:1052200043FD0AC0FC01703208F072C04491F901DC
:105230002491241708F072C0E62FF0E0E855FF4FE4
:105240006491FC018491681709F454CE612FC05811
:10525000DF4F8881C058D0400E94A211B82EF1E0E3
:10526000F817B8F4CB57DF4F8881C558D04083FF7B
:1052700010C091E0103208F092E0C158DF4F8881F1
:10528000CF57D040803208F09CC081E0981709F4D5
:105290009AC0CB57DF4F8881C558D0408770823085
:1052A00008F428CE612FC158DF4F8881CF57D040F6
:1052B0000E94A2118F5FCB57DF4F9881C558D04015
:1052C0009770882483948B1490F4933078F421E0C1
:1052D000103208F022E0C158DF4F3881CF57D0405C
:1052E000303210F042E0742E271101C0915098170F
:1052F00008F4892F8770CB57DF4F9881C558D0406D
:10530000987F982BCB57DF4F9883C558D040F2CD6C
:105310004491F9012491421708F48ECFC957DF4F09
:105320008881C758D0408F7021F088EF810F80337B
:10533000D0F0EF961FAFEF97CE0182589F4F0E949B
:105340004816C957DF4F8881C758D040807F8F7774
:10535000C957DF4F8883C758D040CD57DF4F1982D8
:105360001882C358D040C957DF4F8881C758D040F2
:1053700087FD0AC0C158DF4F1883CF57D040C058AF
:10538000DF4F1883C058D040CB57DF4F8881C558B6
:10539000D040887F8160CB57DF4F8883C558D0408D
:1053A000C957DF4F8881C758D0408F78C957DF4F22
:1053B0008883C758D040CE57DF4F1882C258D0409C
:1053C00099CD82E063CFC058DF4F8881C058D0406C
:1053D000C158DF4F8883CF57D040C058DF4F188364
:1053E000C058D040CB57DF4F8881C558D040887F08
:1053F0008260CB57DF4F8883C558D040C957DF4FF5
:105400008881C758D040807F8F77C957DF4F888306
:10541000C758D0406FCDFC019491C058DF4F8881B0
:10542000C058D040E82FF0E0E855FF4FE4919E17B8
:10543000D9F1CB57DF4F9881C558D04081E0890F13
:105440008770987F982BCB57DF4F9883C558D040F3
:10545000C058DF4F1883C058D04091E0103208F098
:1054600092E0EF962FADEF97203210F032E0732EDE
:10547000971109C0CB57DF4F9881C558D04097701E
:10548000973009F037CD833008F083E08770CB5731
:10549000DF4F9881C558D040987F892BCB57DF4F7D
:1054A0008883C558D04026CD0E94A211823008F6CC
:1054B00021CD7110F9C8CD56DE4FA881B981C359ED
:1054C000D1403C90C258DE4F3882CE57D140CA57A7
:1054D000DE4F1882C658D140C957DE4F1882C758D0
:1054E000D140C857DE4F1882C858D140C757DE4F49
:1054F0001882C958D1401196BC91C157DE4FB8836C
:10550000CF58D14024E0329EF0011124E251FC4FEB
:1055100080819181A281B381C156DE4F88839983B6
:10552000AA83BB83CF59D140832D0E946C0BC556F3
:10553000DE4F688379838A839B83CB59D140832D47
:105540000E94F80E2B013C0125E0CB56DE4FA881CE
:10555000B981C559D1402A9FC0012B9F900D1124BC
:10556000FC01E750FE4F208122952F70C956DE4F77
:105570002883C759D14086509E4FFC018081F82F67
:10558000FF702F2E82958F70C756DE4F8883C959C2
:10559000D14081E0C657DE4F8883CA58D14081E0B0
:1055A00090E0C25CDE4F99838883CE53D140FE01E8
:1055B000E557FE4F1082C457DE4F8881CC58D1404A
:1055C0008111EBC180910701823008F426C280E08E
:1055D000C258DE4F9881CE57D140E92FF0E0E85510
:1055E000FF4F9490F4E0F91518F429E02919922E50
:1055F00030900801811175C0B2E08B2E891408F03B
:1056000070C0F8EFEF2EE90EA8E0FA2EF90E332065
:1056100009F442C28091ED03853008F442C2C09083
:10562000E803C11005C08091E703882309F46FC225
:10563000C258DE4F8880CE57D1400AE613E0B12C25
:10564000A12CE9E1DE2E89E1F801DE01A258BF4F6D
:1056500001900D928A95E1F7D8016C916A3409F4B2
:105660004CC2DA9CF001DB9CF00D1124EF58FC4F8A
:105670008081877015962D913C912430310510F072
:10568000823040F4C957DF4F8881C758D0408F70AF
:1056900009F433C2F80183818D3308F42EC2DA9CF9
:1056A000F001DB9CF00D1124EF58FC4F808180331A
:1056B00008F423C2882D0E945F19853008F01DC2AE
:1056C000D12CA090E703B12CC5010A968C159D053D
:1056D0000CF43FC25AE0C50ED11CCA14DB040CF412
:1056E0006BC2332011F40C9454238091ED0382306B
:1056F00020F072E0872E381009C0C258DE4F888132
:10570000CE57D140803210F40C945423EAE6F3E0F3
:10571000F12CE12C80818A3409F078C289E0C854E8
:10572000DE4FA881B981C85BD1401D928A95E9F707
:10573000CD56DE4FE881F981C359D140B081C258BE
:10574000DE4FA880CE57D140C957DE4FC880C7581A
:10575000D140C25CDE4F68817981CE53D140C657BB
:10576000DE4FA881CA58D140A770122D1770C557B7
:10577000DE4F9881CB58D1409370C756DE4FF881E9
:10578000C959D140F770DF2EC857DE4F5881C8582D
:10579000D1405F70CA57DE4F3881C658D14037704C
:1057A000C757DE4F4881C958D14085E0CB56DE4F00
:1057B00088809980C559D140889DF001899DF00D60
:1057C0001124E850FE4F8081282F2F73B22E82952E
:1057D00086958695837001810F70000F000F082B4E
:1057E000EF96BFAFEF97C158DF4FA882CF57D04099
:1057F000C058DF4FB883C058D040C157DE4F8881B2
:10580000CF58D140CF57DF4F8883C158D040CE57B3
:10581000DF4FC882C258D040CD57DF4F79836883AD
:10582000C358D040CB57DF4F2881C558D04028708F
:10583000C956DE4FC880C759D140C29460EFC62216
:105840002A2B2C29CB57DF4F2883C558D040990FDE
:10585000990F990F8D2D8295880F807E912B982B13
:10586000CA57DF4F9883C658D040C957DF4F888149
:10587000C758D04080783295307F852B832B40FBF2
:1058800087F9C957DF4F8883C758D04020E030E000
:1058900048EC52E4C556DE4F688179818A819B814C
:1058A000CB59D1400E94E2350E94BD37C857DF4F27
:1058B0006883C858D0407770C757DF4FA880C95851
:1058C000D0409A2D987FA92EA72A20E030E048ECFE
:1058D00052E4C301B2010E94E2350E94BD37862F17
:1058E000880F880F880FAA2DA770AA2EA82AC7573D
:1058F000DF4FA882C958D04062956695677077706F
:10590000770F770F770F822D8295880F880F807C15
:10591000272E262A282AC657DF4F2882CA58D04069
:1059200016951695DD0CD12ACD28C557DF4FC882B4
:10593000CB58D040C157DE4FB881CF58D140C45763
:10594000DF4FB883CC58D040C357DF4FB882CD5813
:10595000D040C257DF4F0883CE58D040C156DE4FEB
:10596000288139814A815B81CF59D140C157DF4FAE
:10597000288339834A835B83CF58D040CD56DF4F8D
:10598000488259826A827B82C359D04089E18E9DC8
:10599000D0018F9DB00D11242CCC88EF830D803366
:1059A00008F010CEC157DE4F8880CF58D1408F927B
:1059B000C956DE4F9880C759D1409F92C756DE4FD7
:1059C0002881C959D1402F932F92FF93EF93AE01B5
:1059D000425C5E4F4A01CE0187579E4F5C01DE015B
:1059E000A857BE4F6D01FE01E957FE4F7F018E01A2
:1059F0000A571E4F9E0122583E4F445B5F4F632D56
:105A0000885891400E945B170F900F900F900F9055
:105A10000F900F908111DCCDD5CDC157DE4FF881AD
:105A2000CF58D140FF93C956DE4F8880C759D14027
:105A30008F92C756DE4F9880C959D1409F922F92BE
:105A4000CE0185579E4F9F938F939E01225C3E4FC0
:105A50004901AE0147575E4F5A0103976C01DE01C1
:105A6000A957BE4F7D018E010A571E4F205C3F4F44
:105A70004F5F5F4FCD56DE4FE881F981C359D1406A
:105A8000608181E692E00E945B170F900F900F906B
:105A90000F900F900F909CCD0E949811882309F4CD
:105AA000BECD24E092121DCE222009F41ACEC25897
:105AB000DE4FD880CE57D1403FE13D1508F411CEDE
:105AC000930182014D2D6E2D8F2D0E94E8108823A9
:105AD00009F407CE88E08D0DC258DE4F8883CE577B
